{
  "contractName": "Orange",
  "abi": [
    {
      "inputs": [
        {
          "components": [
            {
              "internalType": "address",
              "name": "membersAddress",
              "type": "address"
            },
            {
              "internalType": "uint256",
              "name": "owed",
              "type": "uint256"
            },
            {
              "internalType": "uint256",
              "name": "payed",
              "type": "uint256"
            }
          ],
          "internalType": "struct Orange.PaymentStruct[]",
          "name": "_payments",
          "type": "tuple[]"
        }
      ],
      "stateMutability": "nonpayable",
      "type": "constructor"
    },
    {
      "anonymous": false,
      "inputs": [
        {
          "indexed": true,
          "internalType": "address",
          "name": "owner",
          "type": "address"
        },
        {
          "indexed": true,
          "internalType": "address",
          "name": "approved",
          "type": "address"
        },
        {
          "indexed": true,
          "internalType": "uint256",
          "name": "tokenId",
          "type": "uint256"
        }
      ],
      "name": "Approval",
      "type": "event"
    },
    {
      "anonymous": false,
      "inputs": [
        {
          "indexed": true,
          "internalType": "address",
          "name": "owner",
          "type": "address"
        },
        {
          "indexed": true,
          "internalType": "address",
          "name": "operator",
          "type": "address"
        },
        {
          "indexed": false,
          "internalType": "bool",
          "name": "approved",
          "type": "bool"
        }
      ],
      "name": "ApprovalForAll",
      "type": "event"
    },
    {
      "anonymous": false,
      "inputs": [
        {
          "indexed": true,
          "internalType": "address",
          "name": "previousOwner",
          "type": "address"
        },
        {
          "indexed": true,
          "internalType": "address",
          "name": "newOwner",
          "type": "address"
        }
      ],
      "name": "OwnershipTransferred",
      "type": "event"
    },
    {
      "anonymous": false,
      "inputs": [
        {
          "indexed": true,
          "internalType": "address",
          "name": "from",
          "type": "address"
        },
        {
          "indexed": true,
          "internalType": "address",
          "name": "to",
          "type": "address"
        },
        {
          "indexed": true,
          "internalType": "uint256",
          "name": "tokenId",
          "type": "uint256"
        }
      ],
      "name": "Transfer",
      "type": "event"
    },
    {
      "stateMutability": "payable",
      "type": "fallback",
      "payable": true
    },
    {
      "inputs": [
        {
          "internalType": "address",
          "name": "to",
          "type": "address"
        },
        {
          "internalType": "uint256",
          "name": "tokenId",
          "type": "uint256"
        }
      ],
      "name": "approve",
      "outputs": [],
      "stateMutability": "nonpayable",
      "type": "function"
    },
    {
      "inputs": [
        {
          "internalType": "address",
          "name": "owner",
          "type": "address"
        }
      ],
      "name": "balanceOf",
      "outputs": [
        {
          "internalType": "uint256",
          "name": "",
          "type": "uint256"
        }
      ],
      "stateMutability": "view",
      "type": "function",
      "constant": true
    },
    {
      "inputs": [
        {
          "internalType": "uint256",
          "name": "tokenId",
          "type": "uint256"
        }
      ],
      "name": "getApproved",
      "outputs": [
        {
          "internalType": "address",
          "name": "",
          "type": "address"
        }
      ],
      "stateMutability": "view",
      "type": "function",
      "constant": true
    },
    {
      "inputs": [
        {
          "internalType": "address",
          "name": "owner",
          "type": "address"
        },
        {
          "internalType": "address",
          "name": "operator",
          "type": "address"
        }
      ],
      "name": "isApprovedForAll",
      "outputs": [
        {
          "internalType": "bool",
          "name": "",
          "type": "bool"
        }
      ],
      "stateMutability": "view",
      "type": "function",
      "constant": true
    },
    {
      "inputs": [],
      "name": "isPublicMint",
      "outputs": [
        {
          "internalType": "bool",
          "name": "",
          "type": "bool"
        }
      ],
      "stateMutability": "view",
      "type": "function",
      "constant": true
    },
    {
      "inputs": [],
      "name": "maxSupply",
      "outputs": [
        {
          "internalType": "uint256",
          "name": "",
          "type": "uint256"
        }
      ],
      "stateMutability": "view",
      "type": "function",
      "constant": true
    },
    {
      "inputs": [],
      "name": "name",
      "outputs": [
        {
          "internalType": "string",
          "name": "",
          "type": "string"
        }
      ],
      "stateMutability": "view",
      "type": "function",
      "constant": true
    },
    {
      "inputs": [],
      "name": "owner",
      "outputs": [
        {
          "internalType": "address",
          "name": "",
          "type": "address"
        }
      ],
      "stateMutability": "view",
      "type": "function",
      "constant": true
    },
    {
      "inputs": [
        {
          "internalType": "uint256",
          "name": "tokenId",
          "type": "uint256"
        }
      ],
      "name": "ownerOf",
      "outputs": [
        {
          "internalType": "address",
          "name": "",
          "type": "address"
        }
      ],
      "stateMutability": "view",
      "type": "function",
      "constant": true
    },
    {
      "inputs": [],
      "name": "price",
      "outputs": [
        {
          "internalType": "uint256",
          "name": "",
          "type": "uint256"
        }
      ],
      "stateMutability": "view",
      "type": "function",
      "constant": true
    },
    {
      "inputs": [],
      "name": "renounceOwnership",
      "outputs": [],
      "stateMutability": "nonpayable",
      "type": "function"
    },
    {
      "inputs": [
        {
          "internalType": "uint256",
          "name": "",
          "type": "uint256"
        }
      ],
      "name": "revealList",
      "outputs": [
        {
          "internalType": "string",
          "name": "uri",
          "type": "string"
        },
        {
          "internalType": "uint128",
          "name": "tokenRange",
          "type": "uint128"
        },
        {
          "internalType": "uint128",
          "name": "shift",
          "type": "uint128"
        }
      ],
      "stateMutability": "view",
      "type": "function",
      "constant": true
    },
    {
      "inputs": [
        {
          "internalType": "address",
          "name": "from",
          "type": "address"
        },
        {
          "internalType": "address",
          "name": "to",
          "type": "address"
        },
        {
          "internalType": "uint256",
          "name": "tokenId",
          "type": "uint256"
        }
      ],
      "name": "safeTransferFrom",
      "outputs": [],
      "stateMutability": "nonpayable",
      "type": "function"
    },
    {
      "inputs": [
        {
          "internalType": "address",
          "name": "from",
          "type": "address"
        },
        {
          "internalType": "address",
          "name": "to",
          "type": "address"
        },
        {
          "internalType": "uint256",
          "name": "tokenId",
          "type": "uint256"
        },
        {
          "internalType": "bytes",
          "name": "_data",
          "type": "bytes"
        }
      ],
      "name": "safeTransferFrom",
      "outputs": [],
      "stateMutability": "nonpayable",
      "type": "function"
    },
    {
      "inputs": [
        {
          "internalType": "address",
          "name": "operator",
          "type": "address"
        },
        {
          "internalType": "bool",
          "name": "approved",
          "type": "bool"
        }
      ],
      "name": "setApprovalForAll",
      "outputs": [],
      "stateMutability": "nonpayable",
      "type": "function"
    },
    {
      "inputs": [
        {
          "internalType": "bytes4",
          "name": "interfaceId",
          "type": "bytes4"
        }
      ],
      "name": "supportsInterface",
      "outputs": [
        {
          "internalType": "bool",
          "name": "",
          "type": "bool"
        }
      ],
      "stateMutability": "view",
      "type": "function",
      "constant": true
    },
    {
      "inputs": [],
      "name": "symbol",
      "outputs": [
        {
          "internalType": "string",
          "name": "",
          "type": "string"
        }
      ],
      "stateMutability": "view",
      "type": "function",
      "constant": true
    },
    {
      "inputs": [
        {
          "internalType": "uint256",
          "name": "index",
          "type": "uint256"
        }
      ],
      "name": "tokenByIndex",
      "outputs": [
        {
          "internalType": "uint256",
          "name": "",
          "type": "uint256"
        }
      ],
      "stateMutability": "view",
      "type": "function",
      "constant": true
    },
    {
      "inputs": [
        {
          "internalType": "address",
          "name": "owner",
          "type": "address"
        },
        {
          "internalType": "uint256",
          "name": "index",
          "type": "uint256"
        }
      ],
      "name": "tokenOfOwnerByIndex",
      "outputs": [
        {
          "internalType": "uint256",
          "name": "",
          "type": "uint256"
        }
      ],
      "stateMutability": "view",
      "type": "function",
      "constant": true
    },
    {
      "inputs": [],
      "name": "totalSupply",
      "outputs": [
        {
          "internalType": "uint256",
          "name": "",
          "type": "uint256"
        }
      ],
      "stateMutability": "view",
      "type": "function",
      "constant": true
    },
    {
      "inputs": [
        {
          "internalType": "address",
          "name": "from",
          "type": "address"
        },
        {
          "internalType": "address",
          "name": "to",
          "type": "address"
        },
        {
          "internalType": "uint256",
          "name": "tokenId",
          "type": "uint256"
        }
      ],
      "name": "transferFrom",
      "outputs": [],
      "stateMutability": "nonpayable",
      "type": "function"
    },
    {
      "inputs": [
        {
          "internalType": "address",
          "name": "newOwner",
          "type": "address"
        }
      ],
      "name": "transferOwnership",
      "outputs": [],
      "stateMutability": "nonpayable",
      "type": "function"
    },
    {
      "inputs": [
        {
          "internalType": "uint256",
          "name": "_numToMint",
          "type": "uint256"
        }
      ],
      "name": "publicMint",
      "outputs": [],
      "stateMutability": "payable",
      "type": "function",
      "payable": true
    },
    {
      "inputs": [
        {
          "internalType": "uint256",
          "name": "_numToMint",
          "type": "uint256"
        },
        {
          "internalType": "bytes32[]",
          "name": "_proof",
          "type": "bytes32[]"
        }
      ],
      "name": "whitelistMint",
      "outputs": [],
      "stateMutability": "payable",
      "type": "function",
      "payable": true
    },
    {
      "inputs": [
        {
          "internalType": "address",
          "name": "_addr",
          "type": "address"
        }
      ],
      "name": "getTokensOfAddress",
      "outputs": [
        {
          "internalType": "uint256[]",
          "name": "",
          "type": "uint256[]"
        }
      ],
      "stateMutability": "view",
      "type": "function",
      "constant": true
    },
    {
      "inputs": [
        {
          "internalType": "uint256",
          "name": "tokenId",
          "type": "uint256"
        }
      ],
      "name": "tokenURI",
      "outputs": [
        {
          "internalType": "string",
          "name": "",
          "type": "string"
        }
      ],
      "stateMutability": "view",
      "type": "function",
      "constant": true
    },
    {
      "inputs": [
        {
          "internalType": "uint256",
          "name": "_index",
          "type": "uint256"
        }
      ],
      "name": "getRevealStruct",
      "outputs": [
        {
          "components": [
            {
              "internalType": "string",
              "name": "uri",
              "type": "string"
            },
            {
              "internalType": "uint128",
              "name": "tokenRange",
              "type": "uint128"
            },
            {
              "internalType": "uint128",
              "name": "shift",
              "type": "uint128"
            }
          ],
          "internalType": "struct Orange.RevealStruct",
          "name": "",
          "type": "tuple"
        }
      ],
      "stateMutability": "view",
      "type": "function",
      "constant": true
    },
    {
      "inputs": [
        {
          "internalType": "string",
          "name": "_uri",
          "type": "string"
        },
        {
          "internalType": "uint128",
          "name": "_tokenRange",
          "type": "uint128"
        }
      ],
      "name": "revealTokens",
      "outputs": [],
      "stateMutability": "nonpayable",
      "type": "function"
    },
    {
      "inputs": [],
      "name": "togglePublicMint",
      "outputs": [],
      "stateMutability": "nonpayable",
      "type": "function"
    },
    {
      "inputs": [
        {
          "internalType": "bytes32",
          "name": "_root",
          "type": "bytes32"
        }
      ],
      "name": "setRoot",
      "outputs": [],
      "stateMutability": "nonpayable",
      "type": "function"
    },
    {
      "inputs": [],
      "name": "withdraw",
      "outputs": [],
      "stateMutability": "nonpayable",
      "type": "function"
    },
    {
      "inputs": [
        {
          "internalType": "uint256",
          "name": "_newMaxSupply",
          "type": "uint256"
        }
      ],
      "name": "lowerMaxSupply",
      "outputs": [],
      "stateMutability": "nonpayable",
      "type": "function"
    }
  ],
  "bytecode": "0x600560065566470de4df820000600755612710600a5560a06040819052600060808190526200003191600c91620001da565b503480156200003f57600080fd5b506040516200367a3803806200367a833981016040819052620000629162000280565b604080518082018252600e81526d4f72616e676520467269656e647360901b6020808301918252835180850190945260068452654f72616e676560d01b908401528151919291620000b691600091620001da565b508051620000cc906001906020840190620001da565b505050620000e9620000e36200018460201b60201c565b62000188565b60005b81518110156200017c57600e8282815181106200010d576200010d62000445565b602090810291909101810151825460018082018555600094855293839020825160039092020180546001600160a01b0319166001600160a01b0390921691909117815591810151928201929092556040909101516002909101558062000173816200041b565b915050620000ec565b505062000471565b3390565b600580546001600160a01b038381166001600160a01b0319831681179093556040519116919082907f8be0079c531659141344cd1fd0a4f28419497f9722a3daafe3b4186f6b6457e090600090a35050565b828054620001e890620003de565b90600052602060002090601f0160209004810192826200020c576000855562000257565b82601f106200022757805160ff191683800117855562000257565b8280016001018555821562000257579182015b82811115620002575782518255916020019190600101906200023a565b506200026592915062000269565b5090565b5b808211156200026557600081556001016200026a565b600060208083850312156200029457600080fd5b82516001600160401b0380821115620002ac57600080fd5b818501915085601f830112620002c157600080fd5b815181811115620002d657620002d66200045b565b620002e6848260051b01620003ab565b81815284810192508385016060808402860187018a10156200030757600080fd5b600095505b83861015620003725780828b0312156200032557600080fd5b6200032f62000380565b82516001600160a01b03811681146200034757600080fd5b815282880151888201526040808401519082015285526001959095019493860193908101906200030c565b509098975050505050505050565b604051606081016001600160401b0381118282101715620003a557620003a56200045b565b60405290565b604051601f8201601f191681016001600160401b0381118282101715620003d657620003d66200045b565b604052919050565b600181811c90821680620003f357607f821691505b602082108114156200041557634e487b7160e01b600052602260045260246000fd5b50919050565b60006000198214156200043e57634e487b7160e01b600052601160045260246000fd5b5060010190565b634e487b7160e01b600052603260045260246000fd5b634e487b7160e01b600052604160045260246000fd5b6131f980620004816000396000f3fe6080604052600436106101ce5760003560e01c806370a08231116100f6578063c4e9374d1161008f578063dab5f34011610061578063dab5f34014610545578063e985e9c514610565578063ee4cb88c146105ae578063f2fde38b146105ce57005b8063c4e9374d146104dc578063c87b56dd146104fc578063d2cab0561461051c578063d5abeb011461052f57005b8063a035b1fe116100c8578063a035b1fe14610459578063a22cb4651461046f578063b76824691461048f578063b88d4fde146104bc57005b806370a08231146103f1578063715018a6146104115780638da5cb5b1461042657806395d89b411461044457005b80632f745c591161016857806342842e0e1161013a57806342842e0e146103625780634f6ccce71461038257806350373a8c146103a25780636352211e146103d157005b80632f745c59146102fe5780633057931f1461031e5780633ccfd60b146103385780634047638d1461034d57005b806314de3919116101a157806314de39191461027f57806318160ddd146102ac57806323b872dd146102cb5780632db11544146102eb57005b806301ffc9a7146101d057806306fdde0314610205578063081812fc14610227578063095ea7b31461025f575b005b3480156101dc57600080fd5b506101f06101eb366004612dd1565b6105ee565b60405190151581526020015b60405180910390f35b34801561021157600080fd5b5061021a610632565b6040516101fc9190612fcc565b34801561023357600080fd5b50610247610242366004612db8565b6106c4565b6040516001600160a01b0390911681526020016101fc565b34801561026b57600080fd5b506101ce61027a366004612d8e565b610753565b34801561028b57600080fd5b5061029f61029a366004612c45565b610885565b6040516101fc9190612f88565b3480156102b857600080fd5b506002545b6040519081526020016101fc565b3480156102d757600080fd5b506101ce6102e6366004612c9a565b610a02565b6101ce6102f9366004612db8565b610a89565b34801561030a57600080fd5b506102bd610319366004612d8e565b610c2f565b34801561032a57600080fd5b506009546101f09060ff1681565b34801561034457600080fd5b506101ce610d23565b34801561035957600080fd5b506101ce61102d565b34801561036e57600080fd5b506101ce61037d366004612c9a565b61109b565b34801561038e57600080fd5b506102bd61039d366004612db8565b6110b6565b3480156103ae57600080fd5b506103c26103bd366004612db8565b611139565b6040516101fc93929190612fdf565b3480156103dd57600080fd5b506102476103ec366004612db8565b611209565b3480156103fd57600080fd5b506102bd61040c366004612c45565b6112fc565b34801561041d57600080fd5b506101ce6113e5565b34801561043257600080fd5b506005546001600160a01b0316610247565b34801561045057600080fd5b5061021a611449565b34801561046557600080fd5b506102bd60075481565b34801561047b57600080fd5b506101ce61048a366004612d52565b611458565b34801561049b57600080fd5b506104af6104aa366004612db8565b61151d565b6040516101fc9190613012565b3480156104c857600080fd5b506101ce6104d7366004612cd6565b611674565b3480156104e857600080fd5b506101ce6104f7366004612db8565b6116fc565b34801561050857600080fd5b5061021a610517366004612db8565b611778565b6101ce61052a366004612e72565b6119fb565b34801561053b57600080fd5b506102bd600a5481565b34801561055157600080fd5b506101ce610560366004612db8565b611cc9565b34801561057157600080fd5b506101f0610580366004612c67565b6001600160a01b03918216600090815260046020908152604080832093909416825291909152205460ff1690565b3480156105ba57600080fd5b506101ce6105c9366004612e0b565b611d28565b3480156105da57600080fd5b506101ce6105e9366004612c45565b6120ca565b60006001600160e01b031982167f780e9d6300000000000000000000000000000000000000000000000000000000148061062c575061062c826121ac565b92915050565b606060008054610641906130eb565b80601f016020809104026020016040519081016040528092919081815260200182805461066d906130eb565b80156106ba5780601f1061068f576101008083540402835291602001916106ba565b820191906000526020600020905b81548152906001019060200180831161069d57829003601f168201915b5050505050905090565b60006106d1826002541190565b6107375760405162461bcd60e51b815260206004820152602c60248201527f4552433732313a20617070726f76656420717565727920666f72206e6f6e657860448201526b34b9ba32b73a103a37b5b2b760a11b60648201526084015b60405180910390fd5b506000908152600360205260409020546001600160a01b031690565b600061075e82611209565b9050806001600160a01b0316836001600160a01b031614156107e85760405162461bcd60e51b815260206004820152602160248201527f4552433732313a20617070726f76616c20746f2063757272656e74206f776e6560448201527f7200000000000000000000000000000000000000000000000000000000000000606482015260840161072e565b336001600160a01b038216148061080457506108048133610580565b6108765760405162461bcd60e51b815260206004820152603860248201527f4552433732313a20617070726f76652063616c6c6572206973206e6f74206f7760448201527f6e6572206e6f7220617070726f76656420666f7220616c6c0000000000000000606482015260840161072e565b6108808383612247565b505050565b606080600061089360025490565b90508067ffffffffffffffff8111156108ae576108ae613197565b6040519080825280602002602001820160405280156108d7578160200160208202803683370190505b5091506000805b8281101561095c57856001600160a01b03166002828154811061090357610903613181565b6000918252602090912001546001600160a01b0316141561094a578084838151811061093157610931613181565b60209081029190910101528161094681613126565b9250505b8061095481613126565b9150506108de565b5060008167ffffffffffffffff81111561097857610978613197565b6040519080825280602002602001820160405280156109a1578160200160208202803683370190505b50905060005b828110156109f8578481815181106109c1576109c1613181565b60200260200101518282815181106109db576109db613181565b6020908102919091010152806109f081613126565b9150506109a7565b5095945050505050565b610a0c33826122c2565b610a7e5760405162461bcd60e51b815260206004820152603160248201527f4552433732313a207472616e736665722063616c6c6572206973206e6f74206f60448201527f776e6572206e6f7220617070726f766564000000000000000000000000000000606482015260840161072e565b6108808383836123ae565b60008111610ad95760405162461bcd60e51b815260206004820152601c60248201527f456e74657220612076616c696420616d6f756e7420746f206d696e7400000000604482015260640161072e565b6000610ae460025490565b905060003360095490915060ff161515600114610b435760405162461bcd60e51b815260206004820152601460248201527f4d696e74696e672069736e2774207075626c6963000000000000000000000000604482015260640161072e565b600a54610b50848461305d565b10610b9d5760405162461bcd60e51b815260206004820152601b60248201527f4d617820737570706c7920686173206265656e20726561636865640000000000604482015260640161072e565b3483600754610bac9190613089565b14610bf95760405162461bcd60e51b815260206004820152601a60248201527f496e76616c69642076616c75652073656e7420746f206d696e74000000000000604482015260640161072e565b60005b83811015610c2957610c1782610c12838661305d565b61253e565b80610c2181613126565b915050610bfc565b50505050565b6000806000610c3d60025490565b905060005b81811015610cb457856001600160a01b031660028281548110610c6757610c67613181565b6000918252602090912001546001600160a01b03161415610ca25784831415610c9457925061062c915050565b82610c9e81613126565b9350505b80610cac81613126565b915050610c42565b5060405162461bcd60e51b815260206004820152602b60248201527f455243373231456e756d657261626c653a206f776e657220696e646578206f7560448201527f74206f6620626f756e6473000000000000000000000000000000000000000000606482015260840161072e565b6005546001600160a01b03163314610d7d5760405162461bcd60e51b815260206004820181905260248201527f4f776e61626c653a2063616c6c6572206973206e6f7420746865206f776e6572604482015260640161072e565b308031610df25760405162461bcd60e51b815260206004820152602260248201527f7468657265206973206e6f2062616c616e636520696e2074686520616464726560448201527f7373000000000000000000000000000000000000000000000000000000000000606482015260840161072e565b600e54610e415760405162461bcd60e51b815260206004820152601760248201527f686176656e742073657420746865207061796d656e7473000000000000000000604482015260640161072e565b610e6e604051806060016040528060006001600160a01b0316815260200160008152602001600081525090565b60005b600e54811015610fad576001600160a01b03831631610e8f57505050565b600e8181548110610ea257610ea2613181565b6000918252602080832060408051606081018252600390940290910180546001600160a01b03168452600181015492840183905260020154908301819052919450610eed91906130a8565b90508015610f9a57600081856001600160a01b03163110610f0f575080610f1c565b506001600160a01b038416315b8084604001818151610f2e919061305d565b9052506040840151600e805485908110610f4a57610f4a613181565b6000918252602082206002600390920201019190915584516040516001600160a01b039091169183156108fc02918491818181858888f19350505050158015610f97573d6000803e3d6000fd5b50505b5080610fa581613126565b915050610e71565b506001600160a01b038216311561102857600e8054610fce906001906130a8565b81548110610fde57610fde613181565b600091825260208220600390910201546040516001600160a01b03918216929185163180156108fc0292909190818181858888f19350505050158015610880573d6000803e3d6000fd5b50505b565b6005546001600160a01b031633146110875760405162461bcd60e51b815260206004820181905260248201527f4f776e61626c653a2063616c6c6572206973206e6f7420746865206f776e6572604482015260640161072e565b6009805460ff19811660ff90911615179055565b61088083838360405180602001604052806000815250611674565b60006110c160025490565b82106111355760405162461bcd60e51b815260206004820152602c60248201527f455243373231456e756d657261626c653a20676c6f62616c20696e646578206f60448201527f7574206f6620626f756e64730000000000000000000000000000000000000000606482015260840161072e565b5090565b600d818154811061114957600080fd5b906000526020600020906002020160009150905080600001805461116c906130eb565b80601f0160208091040260200160405190810160405280929190818152602001828054611198906130eb565b80156111e55780601f106111ba576101008083540402835291602001916111e5565b820191906000526020600020905b8154815290600101906020018083116111c857829003601f168201915b505050600190930154919250506001600160801b0380821691600160801b90041683565b600254600090821061125d5760405162461bcd60e51b815260206004820152601460248201527f746f6b656e20646f6573206e6f77206578697374000000000000000000000000604482015260640161072e565b60006002838154811061127257611272613181565b6000918252602090912001546001600160a01b031690508061062c5760405162461bcd60e51b815260206004820152602960248201527f4552433732313a206f776e657220717565727920666f72206e6f6e657869737460448201527f656e7420746f6b656e0000000000000000000000000000000000000000000000606482015260840161072e565b60006001600160a01b03821661137a5760405162461bcd60e51b815260206004820152602a60248201527f4552433732313a2062616c616e636520717565727920666f7220746865207a6560448201527f726f206164647265737300000000000000000000000000000000000000000000606482015260840161072e565b600254600090815b818110156113dc576002818154811061139d5761139d613181565b6000918252602090912001546001600160a01b03868116911614156113ca57826113c681613126565b9350505b806113d481613126565b915050611382565b50909392505050565b6005546001600160a01b0316331461143f5760405162461bcd60e51b815260206004820181905260248201527f4f776e61626c653a2063616c6c6572206973206e6f7420746865206f776e6572604482015260640161072e565b61102b6000612558565b606060018054610641906130eb565b6001600160a01b0382163314156114b15760405162461bcd60e51b815260206004820152601960248201527f4552433732313a20617070726f766520746f2063616c6c657200000000000000604482015260640161072e565b3360008181526004602090815260408083206001600160a01b03871680855290835292819020805460ff191686151590811790915590519081529192917f17307eab39ab6107e8899845ad3d59bd9653f200f220920489ca2b5937696c31910160405180910390a35050565b6040805160608082018352815260006020820181905291810191909152600d54821061158b5760405162461bcd60e51b815260206004820152601260248201527f696e646578206f7574206f662072616e67650000000000000000000000000000604482015260640161072e565b600d828154811061159e5761159e613181565b90600052602060002090600202016040518060600160405290816000820180546115c7906130eb565b80601f01602080910402602001604051908101604052809291908181526020018280546115f3906130eb565b80156116405780601f1061161557610100808354040283529160200191611640565b820191906000526020600020905b81548152906001019060200180831161162357829003601f168201915b5050509183525050600191909101546001600160801b038082166020840152600160801b9091041660409091015292915050565b61167e33836122c2565b6116f05760405162461bcd60e51b815260206004820152603160248201527f4552433732313a207472616e736665722063616c6c6572206973206e6f74206f60448201527f776e6572206e6f7220617070726f766564000000000000000000000000000000606482015260840161072e565b610c29848484846125b7565b6005546001600160a01b031633146117565760405162461bcd60e51b815260206004820181905260248201527f4f776e61626c653a2063616c6c6572206973206e6f7420746865206f776e6572604482015260640161072e565b60025481101561176557600080fd5b600a54811061177357600080fd5b600a55565b6060611785826002541190565b6117f75760405162461bcd60e51b815260206004820152602f60248201527f4552433732314d657461646174613a2055524920717565727920666f72206e6f60448201527f6e6578697374656e7420746f6b656e0000000000000000000000000000000000606482015260840161072e565b600d5461181257505060408051602081019091526000815290565b60408051606080820183528152600060208201819052918101829052606060005b600d5481101561196157600d818154811061185057611850613181565b9060005260206000209060020201604051806060016040529081600082018054611879906130eb565b80601f01602080910402602001604051908101604052809291908181526020018280546118a5906130eb565b80156118f25780601f106118c7576101008083540402835291602001916118f2565b820191906000526020600020905b8154815290600101906020018083116118d557829003601f168201915b5050509183525050600191909101546001600160801b03808216602080850191909152600160801b90920481166040909301929092528201519194501686101561193f5782519150611961565b60208301516001600160801b031693508061195981613126565b915050611833565b5080516119805750506040805160208101909152600081529392505050565b60008383602001516001600160801b031661199b91906130a8565b905060008184604001516001600160801b0316886119b9919061305d565b6119c39190613141565b9050826119cf82612635565b6040516020016119e0929190612f1d565b60405160208183030381529060405295505050505050919050565b60008311611a4b5760405162461bcd60e51b815260206004820152601c60248201527f456e74657220612076616c696420616d6f756e7420746f206d696e7400000000604482015260640161072e565b6000611a5660025490565b600654336000818152600b602052604090205492935091611a7890879061305d565b1115611aeb5760405162461bcd60e51b8152602060048201526024808201527f417474656d7074696e6720746f206d696e74206d6f7265207468616e20616c6c60448201527f6f77656400000000000000000000000000000000000000000000000000000000606482015260840161072e565b600a54611af8868461305d565b10611b455760405162461bcd60e51b815260206004820152601b60248201527f4d617820737570706c7920686173206265656e20726561636865640000000000604482015260640161072e565b3485600754611b549190613089565b14611ba15760405162461bcd60e51b815260206004820152601a60248201527f496e76616c69642076616c75652073656e7420746f206d696e74000000000000604482015260640161072e565b6040516bffffffffffffffffffffffff19606083901b166020820152600090603401604051602081830303815290604052805190602001209050611c1c858580806020026020016040519081016040528093929190818152602001838360200280828437600092019190915250506008549150849050612767565b611c685760405162461bcd60e51b815260206004820152600d60248201527f496e76616c69642070726f6f6600000000000000000000000000000000000000604482015260640161072e565b60005b86811015611c9357611c8183610c12838761305d565b80611c8b81613126565b915050611c6b565b506001600160a01b0382166000908152600b602052604081208054889290611cbc90849061305d565b9091555050505050505050565b6005546001600160a01b03163314611d235760405162461bcd60e51b815260206004820181905260248201527f4f776e61626c653a2063616c6c6572206973206e6f7420746865206f776e6572604482015260640161072e565b600855565b6005546001600160a01b03163314611d825760405162461bcd60e51b815260206004820181905260248201527f4f776e61626c653a2063616c6c6572206973206e6f7420746865206f776e6572604482015260640161072e565b600080600d805480602002602001604051908101604052809291908181526020016000905b82821015611e955783829060005260206000209060020201604051806060016040529081600082018054611dda906130eb565b80601f0160208091040260200160405190810160405280929190818152602001828054611e06906130eb565b8015611e535780601f10611e2857610100808354040283529160200191611e53565b820191906000526020600020905b815481529060010190602001808311611e3657829003601f168201915b50505091835250506001918201546001600160801b03808216602080850191909152600160801b90920416604090920191909152918352929092019101611da7565b505050509050600081511115611edc578060018251611eb491906130a8565b81518110611ec457611ec4613181565b6020026020010151602001516001600160801b031691505b81836001600160801b031611611f5a5760405162461bcd60e51b815260206004820152603560248201527f546f6b656e2072616e6765206e6565647320746f206265206c6172676572207460448201527f68616e20746865206c6173742072657665616c65640000000000000000000000606482015260840161072e565b600a54836001600160801b03161115611fb55760405162461bcd60e51b815260206004820181905260248201527f43616e742072657665616c206d6f7265207468616e206d617820737570706c79604482015260640161072e565b6000611fca836001600160801b0386166130a8565b90506000813360405160609190911b6bffffffffffffffffffffffff191660208201524260348201524460548201526074016040516020818303038152906040528051906020012060001c61201f9190613141565b604080516060810182528881526001600160801b0380891660208084019190915290841692820192909252600d805460018101825560009190915281518051949550919360029091027fd7b6990105719101dabeb77144f2a3385c8033acd3af97e9423a695e81ad1eb50192612099928492910190612b23565b5060208201516040909201516001600160801b03908116600160801b02921691909117600190910155505050505050565b6005546001600160a01b031633146121245760405162461bcd60e51b815260206004820181905260248201527f4f776e61626c653a2063616c6c6572206973206e6f7420746865206f776e6572604482015260640161072e565b6001600160a01b0381166121a05760405162461bcd60e51b815260206004820152602660248201527f4f776e61626c653a206e6577206f776e657220697320746865207a65726f206160448201527f6464726573730000000000000000000000000000000000000000000000000000606482015260840161072e565b6121a981612558565b50565b60006001600160e01b031982167f80ac58cd00000000000000000000000000000000000000000000000000000000148061220f57506001600160e01b031982167f5b5e139f00000000000000000000000000000000000000000000000000000000145b8061062c57507f01ffc9a7000000000000000000000000000000000000000000000000000000006001600160e01b031983161461062c565b6000818152600360205260409020805473ffffffffffffffffffffffffffffffffffffffff19166001600160a01b038416908117909155819061228982611209565b6001600160a01b03167f8c5be1e5ebec7d5bd14f71427d1e84f3dd0314c0f7b2291e5b200ac8c7c3b92560405160405180910390a45050565b60006122cf826002541190565b6123305760405162461bcd60e51b815260206004820152602c60248201527f4552433732313a206f70657261746f7220717565727920666f72206e6f6e657860448201526b34b9ba32b73a103a37b5b2b760a11b606482015260840161072e565b600061233b83611209565b9050806001600160a01b0316846001600160a01b031614806123765750836001600160a01b031661236b846106c4565b6001600160a01b0316145b806123a657506001600160a01b0380821660009081526004602090815260408083209388168352929052205460ff165b949350505050565b826001600160a01b03166123c182611209565b6001600160a01b03161461243d5760405162461bcd60e51b815260206004820152602960248201527f4552433732313a207472616e73666572206f6620746f6b656e2074686174206960448201527f73206e6f74206f776e0000000000000000000000000000000000000000000000606482015260840161072e565b6001600160a01b0382166124b85760405162461bcd60e51b8152602060048201526024808201527f4552433732313a207472616e7366657220746f20746865207a65726f2061646460448201527f7265737300000000000000000000000000000000000000000000000000000000606482015260840161072e565b6124c3600082612247565b81600282815481106124d7576124d7613181565b60009182526020822001805473ffffffffffffffffffffffffffffffffffffffff19166001600160a01b03938416179055604051839285811692908716917fddf252ad1be2c89b69c2b068fc378daa952ba7f163c4a11628f55a4df523b3ef9190a4505050565b611028828260405180602001604052806000815250612816565b600580546001600160a01b0383811673ffffffffffffffffffffffffffffffffffffffff19831681179093556040519116919082907f8be0079c531659141344cd1fd0a4f28419497f9722a3daafe3b4186f6b6457e090600090a35050565b6125c28484846123ae565b6125ce84848484612894565b610c295760405162461bcd60e51b815260206004820152603260248201527f4552433732313a207472616e7366657220746f206e6f6e20455243373231526560448201527131b2b4bb32b91034b6b83632b6b2b73a32b960711b606482015260840161072e565b60608161267557505060408051808201909152600181527f3000000000000000000000000000000000000000000000000000000000000000602082015290565b8160005b811561269f578061268981613126565b91506126989050600a83613075565b9150612679565b60008167ffffffffffffffff8111156126ba576126ba613197565b6040519080825280601f01601f1916602001820160405280156126e4576020820181803683370190505b5090505b84156123a6576126f96001836130a8565b9150612706600a86613141565b61271190603061305d565b60f81b81838151811061272657612726613181565b60200101907effffffffffffffffffffffffffffffffffffffffffffffffffffffffffffff1916908160001a905350612760600a86613075565b94506126e8565b600081815b855181101561280b57600086828151811061278957612789613181565b602002602001015190508083116127cb5760408051602081018590529081018290526060016040516020818303038152906040528051906020012092506127f8565b60408051602081018390529081018490526060016040516020818303038152906040528051906020012092505b508061280381613126565b91505061276c565b509092149392505050565b61282083836129ec565b61282d6000848484612894565b6108805760405162461bcd60e51b815260206004820152603260248201527f4552433732313a207472616e7366657220746f206e6f6e20455243373231526560448201527131b2b4bb32b91034b6b83632b6b2b73a32b960711b606482015260840161072e565b60006001600160a01b0384163b156129e157604051630a85bd0160e11b81526001600160a01b0385169063150b7a02906128d8903390899088908890600401612f4c565b602060405180830381600087803b1580156128f257600080fd5b505af1925050508015612922575060408051601f3d908101601f1916820190925261291f91810190612dee565b60015b6129c7573d808015612950576040519150601f19603f3d011682016040523d82523d6000602084013e612955565b606091505b5080516129bf5760405162461bcd60e51b815260206004820152603260248201527f4552433732313a207472616e7366657220746f206e6f6e20455243373231526560448201527131b2b4bb32b91034b6b83632b6b2b73a32b960711b606482015260840161072e565b805181602001fd5b6001600160e01b031916630a85bd0160e11b1490506123a6565b506001949350505050565b6001600160a01b038216612a425760405162461bcd60e51b815260206004820181905260248201527f4552433732313a206d696e7420746f20746865207a65726f2061646472657373604482015260640161072e565b612a4d816002541190565b15612a9a5760405162461bcd60e51b815260206004820152601c60248201527f4552433732313a20746f6b656e20616c7265616479206d696e74656400000000604482015260640161072e565b6002805460018101825560009182527f405787fa12a823e0f2b7631cc41b3ba8828b3321ca811111fa75cd3aa3bb5ace01805473ffffffffffffffffffffffffffffffffffffffff19166001600160a01b0385169081179091556040518392907fddf252ad1be2c89b69c2b068fc378daa952ba7f163c4a11628f55a4df523b3ef908290a45050565b828054612b2f906130eb565b90600052602060002090601f016020900481019282612b515760008555612b97565b82601f10612b6a57805160ff1916838001178555612b97565b82800160010185558215612b97579182015b82811115612b97578251825591602001919060010190612b7c565b506111359291505b808211156111355760008155600101612b9f565b600067ffffffffffffffff80841115612bce57612bce613197565b604051601f8501601f19908116603f01168101908282118183101715612bf657612bf6613197565b81604052809350858152868686011115612c0f57600080fd5b858560208301376000602087830101525050509392505050565b80356001600160a01b0381168114612c4057600080fd5b919050565b600060208284031215612c5757600080fd5b612c6082612c29565b9392505050565b60008060408385031215612c7a57600080fd5b612c8383612c29565b9150612c9160208401612c29565b90509250929050565b600080600060608486031215612caf57600080fd5b612cb884612c29565b9250612cc660208501612c29565b9150604084013590509250925092565b60008060008060808587031215612cec57600080fd5b612cf585612c29565b9350612d0360208601612c29565b925060408501359150606085013567ffffffffffffffff811115612d2657600080fd5b8501601f81018713612d3757600080fd5b612d4687823560208401612bb3565b91505092959194509250565b60008060408385031215612d6557600080fd5b612d6e83612c29565b915060208301358015158114612d8357600080fd5b809150509250929050565b60008060408385031215612da157600080fd5b612daa83612c29565b946020939093013593505050565b600060208284031215612dca57600080fd5b5035919050565b600060208284031215612de357600080fd5b8135612c60816131ad565b600060208284031215612e0057600080fd5b8151612c60816131ad565b60008060408385031215612e1e57600080fd5b823567ffffffffffffffff811115612e3557600080fd5b8301601f81018513612e4657600080fd5b612e5585823560208401612bb3565b92505060208301356001600160801b0381168114612d8357600080fd5b600080600060408486031215612e8757600080fd5b83359250602084013567ffffffffffffffff80821115612ea657600080fd5b818601915086601f830112612eba57600080fd5b813581811115612ec957600080fd5b8760208260051b8501011115612ede57600080fd5b6020830194508093505050509250925092565b60008151808452612f098160208601602086016130bf565b601f01601f19169290920160200192915050565b60008351612f2f8184602088016130bf565b835190830190612f438183602088016130bf565b01949350505050565b60006001600160a01b03808716835280861660208401525083604083015260806060830152612f7e6080830184612ef1565b9695505050505050565b6020808252825182820181905260009190848201906040850190845b81811015612fc057835183529284019291840191600101612fa4565b50909695505050505050565b602081526000612c606020830184612ef1565b606081526000612ff26060830186612ef1565b6001600160801b0394851660208401529290931660409091015292915050565b60208152600082516060602084015261302e6080840182612ef1565b905060208401516001600160801b03808216604086015280604087015116606086015250508091505092915050565b6000821982111561307057613070613155565b500190565b6000826130845761308461316b565b500490565b60008160001904831182151516156130a3576130a3613155565b500290565b6000828210156130ba576130ba613155565b500390565b60005b838110156130da5781810151838201526020016130c2565b83811115610c295750506000910152565b600181811c908216806130ff57607f821691505b6020821081141561312057634e487b7160e01b600052602260045260246000fd5b50919050565b600060001982141561313a5761313a613155565b5060010190565b6000826131505761315061316b565b500690565b634e487b7160e01b600052601160045260246000fd5b634e487b7160e01b600052601260045260246000fd5b634e487b7160e01b600052603260045260246000fd5b634e487b7160e01b600052604160045260246000fd5b6001600160e01b0319811681146121a957600080fdfea2646970667358221220387501f2512a47485256efe228fa5632b48c5ba6b4fa4c056b5e8de21c25fe6564736f6c63430008070033",
  "immutableReferences": {},
  "source": "// SPDX-License-Identifier: MIT\r\npragma solidity ^0.8.7;\r\n\r\nimport \"@openzeppelin/contracts/access/Ownable.sol\";\r\nimport \"@openzeppelin/contracts/utils/cryptography/MerkleProof.sol\";\r\nimport \"./ERC721EnumerableCheap.sol\";\r\nimport \"@openzeppelin/contracts/utils/Strings.sol\";\r\n\r\ncontract Orange is ERC721EnumerableCheap, Ownable {\r\n\r\n    using Strings for uint256;\r\n\r\n\tuint maxWhitelistMint = 5;\r\n\tuint public price = 0.02 ether;\r\n\r\n    bytes32 root;\r\n\r\n    bool public isPublicMint;\r\n\r\n    uint public maxSupply = 10000;\r\n\r\n    mapping(address => uint) numWhitelistMinted;\r\n\r\n    string provenanceHash = \"\";\r\n\r\n    struct RevealStruct {\r\n        string uri;\r\n        uint128 tokenRange;\r\n        uint128 shift;\r\n    }\r\n\r\n    RevealStruct[] public revealList;\r\n\r\n    struct PaymentStruct {\r\n        address membersAddress;\r\n        uint owed;\r\n        uint payed;\r\n    }\r\n\r\n    PaymentStruct[] payments;\r\n\r\n    constructor(PaymentStruct[] memory _payments) ERC721Cheap(\"Orange Friends\", \"Orange\") {\r\n\r\n        for(uint i = 0; i < _payments.length; i++) {\r\n            payments.push(_payments[i]);\r\n        }\r\n\r\n    }\r\n\r\n    function publicMint(uint _numToMint) external payable {\r\n\r\n    \trequire(_numToMint > 0, \"Enter a valid amount to mint\");\r\n\r\n    \tuint tokenId = totalSupply();\r\n\r\n    \taddress sender = _msgSender();\r\n\r\n    \trequire(isPublicMint == true, \"Minting isn't public\");\r\n\r\n    \trequire(tokenId + _numToMint < maxSupply, \"Max supply has been reached\");\r\n\r\n    \trequire(price * _numToMint == msg.value, \"Invalid value sent to mint\");\r\n\r\n    \tfor(uint i = 0; i < _numToMint; i++) {\r\n\r\n    \t\t_safeMint(sender, tokenId + i);\r\n\r\n    \t}\r\n\r\n    }\r\n\r\n    function whitelistMint(uint _numToMint, bytes32[] calldata _proof) external payable {\r\n\r\n        require(_numToMint > 0, \"Enter a valid amount to mint\");\r\n\r\n        uint tokenId = totalSupply();\r\n\r\n        address sender = _msgSender();\r\n\r\n        require(numWhitelistMinted[sender] + _numToMint <= maxWhitelistMint, \"Attempting to mint more than allowed\");\r\n\r\n        require(tokenId + _numToMint < maxSupply, \"Max supply has been reached\");\r\n\r\n        require(price * _numToMint == msg.value, \"Invalid value sent to mint\");\r\n\r\n        bytes32 leaf = keccak256(abi.encodePacked(sender));\r\n\r\n        require(MerkleProof.verify(_proof, root, leaf), \"Invalid proof\");\r\n\r\n        for(uint i = 0; i < _numToMint; i++) {\r\n\r\n            _safeMint(sender, tokenId + i);\r\n\r\n        }\r\n\r\n        numWhitelistMinted[sender] += _numToMint;\r\n\r\n    }\r\n\r\n    /**\r\n     * @dev Returns an array of token ids the address owns, mainly for frontend use, and helps with limitations set by storing less info\r\n     * @param _addr address of interest\r\n    */\r\n    function getTokensOfAddress(address _addr) public view returns(uint[] memory) {\r\n\r\n        uint[] memory tempArray;\r\n\r\n        uint totalSupply = totalSupply();\r\n\r\n        tempArray = new uint[](totalSupply);\r\n        uint total = 0;\r\n        for(uint i = 0; i < totalSupply; i++) {\r\n            if(_owners[i] == _addr) {\r\n                tempArray[total] = i;\r\n                total++;\r\n            }\r\n        }\r\n\r\n        uint[] memory finalArray = new uint[](total);\r\n        for(uint i = 0; i < total; i++) {\r\n            finalArray[i] = tempArray[i];\r\n        }\r\n        \r\n        return finalArray;\r\n\r\n    }\r\n\r\n    function tokenURI(uint256 tokenId) public view override returns (string memory) {\r\n\r\n        require(_exists(tokenId), \"ERC721Metadata: URI query for nonexistent token\");\r\n\r\n        if(revealList.length == 0) {\r\n            return \"\";\r\n        }\r\n\r\n        uint lastTokenRange = 0;\r\n        RevealStruct memory reveal;\r\n\r\n        string memory uri;\r\n\r\n        for(uint i = 0; i < revealList.length; i++) {\r\n\r\n            reveal = revealList[i];\r\n\r\n            if(tokenId < reveal.tokenRange) {\r\n\r\n                uri = reveal.uri;\r\n                break;\r\n\r\n            }\r\n\r\n            lastTokenRange = reveal.tokenRange;\r\n\r\n        }\r\n\r\n        if(bytes(uri).length == 0) {\r\n            return \"\";\r\n        }\r\n\r\n        uint difference = reveal.tokenRange - lastTokenRange;\r\n\r\n        uint moddedId = (tokenId + reveal.shift) % difference;\r\n\r\n        return string(abi.encodePacked(uri, moddedId.toString()));\r\n\r\n    }\r\n\r\n    function getRevealStruct(uint _index) public view returns(RevealStruct memory) {\r\n        require(_index < revealList.length, \"index out of range\");\r\n        return revealList[_index];\r\n    }\r\n    \r\n    function revealTokens(string memory _uri, uint128 _tokenRange) external onlyOwner {\r\n\r\n        uint lastTokenRevealed = 0;\r\n        RevealStruct[] memory RevealList = revealList;\r\n\r\n        if(RevealList.length > 0) {\r\n            lastTokenRevealed = RevealList[RevealList.length - 1].tokenRange;\r\n        }\r\n\r\n        require(_tokenRange > lastTokenRevealed, \"Token range needs to be larger than the last revealed\");\r\n\r\n        require(_tokenRange <= maxSupply, \"Cant reveal more than max supply\");\r\n\r\n        uint difference = _tokenRange - lastTokenRevealed;\r\n\r\n        uint128 shift = uint128(uint(keccak256(abi.encodePacked(_msgSender(), block.timestamp, block.difficulty))) % difference);\r\n\r\n        revealList.push(RevealStruct(\r\n            _uri,\r\n            _tokenRange,\r\n            shift\r\n        ));\r\n\r\n    }\r\n\r\n    function togglePublicMint() external onlyOwner {\r\n\r\n    \tisPublicMint = !isPublicMint;\r\n\r\n    }\r\n\r\n    function setRoot(bytes32 _root) external onlyOwner {\r\n\r\n    \troot = _root;\r\n\r\n    }\r\n\r\n    //TODO: need to improve on this function\r\n    function withdraw() external onlyOwner {\r\n\r\n    \taddress thisAddress = address(this);\r\n\r\n        require(thisAddress.balance > 0, \"there is no balance in the address\");\r\n        require(payments.length > 0, \"havent set the payments\");\r\n\r\n        PaymentStruct memory payment;\r\n\r\n        for(uint i = 0; i < payments.length; i++) {\r\n\r\n            if(thisAddress.balance == 0) {\r\n                return;\r\n            }\r\n\r\n            payment = payments[i];\r\n\r\n            uint paymentLeft = payment.owed - payment.payed;\r\n\r\n            if(paymentLeft > 0) {\r\n\r\n                uint amountToPay;\r\n\r\n                if(thisAddress.balance >= paymentLeft) {\r\n\r\n                    amountToPay = paymentLeft;\r\n\r\n\r\n                } else {\r\n                    amountToPay = thisAddress.balance;\r\n                }\r\n\r\n                payment.payed += amountToPay;\r\n                payments[i].payed = payment.payed;\r\n\r\n                payable(payment.membersAddress).transfer(amountToPay);\r\n\r\n            } \r\n\r\n        }\r\n\r\n        if(thisAddress.balance > 0) {\r\n\r\n            payable(payments[payments.length - 1].membersAddress).transfer(thisAddress.balance);\r\n        }\r\n\r\n    }\r\n\r\n    /**\r\n    * @dev Lowers the max supply in case minting doesnt sell out\r\n    * @param _newMaxSupply the new, and lower max supply\r\n    */ \r\n    function lowerMaxSupply(uint _newMaxSupply) external onlyOwner {\r\n        require(_newMaxSupply >= totalSupply());\r\n        require(_newMaxSupply < maxSupply);\r\n\r\n        maxSupply = _newMaxSupply;\r\n    }\r\n\r\n    fallback() external payable {\r\n\r\n    }\r\n\r\n}",
  "sourcePath": "C:\\Users\\Owner\\Documents\\Python\\NFT code\\DappUniversity\\decentragram\\src\\contracts\\Orange.sol",
  "compiler": {
    "name": "solc",
    "version": "0.8.7+commit.e28d00a7.Emscripten.clang"
  },
  "schemaVersion": "3.4.3",
  "updatedAt": "2022-01-07T21:52:16.763Z",
  "networkType": "ethereum",
  "devdoc": {
    "kind": "dev",
    "methods": {
      "approve(address,uint256)": {
        "details": "See {IERC721-approve}."
      },
      "balanceOf(address)": {
        "details": "See {IERC721-balanceOf}. altered to remove the need to set a balances map"
      },
      "getApproved(uint256)": {
        "details": "See {IERC721-getApproved}."
      },
      "getTokensOfAddress(address)": {
        "details": "Returns an array of token ids the address owns, mainly for frontend use, and helps with limitations set by storing less info",
        "params": {
          "_addr": "address of interest"
        }
      },
      "isApprovedForAll(address,address)": {
        "details": "See {IERC721-isApprovedForAll}."
      },
      "lowerMaxSupply(uint256)": {
        "details": "Lowers the max supply in case minting doesnt sell out",
        "params": {
          "_newMaxSupply": "the new, and lower max supply"
        }
      },
      "name()": {
        "details": "See {IERC721Metadata-name}."
      },
      "owner()": {
        "details": "Returns the address of the current owner."
      },
      "ownerOf(uint256)": {
        "details": "See {IERC721-ownerOf}."
      },
      "renounceOwnership()": {
        "details": "Leaves the contract without owner. It will not be possible to call `onlyOwner` functions anymore. Can only be called by the current owner. NOTE: Renouncing ownership will leave the contract without an owner, thereby removing any functionality that is only available to the owner."
      },
      "safeTransferFrom(address,address,uint256)": {
        "details": "See {IERC721-safeTransferFrom}."
      },
      "safeTransferFrom(address,address,uint256,bytes)": {
        "details": "See {IERC721-safeTransferFrom}."
      },
      "setApprovalForAll(address,bool)": {
        "details": "See {IERC721-setApprovalForAll}."
      },
      "supportsInterface(bytes4)": {
        "details": "See {IERC165-supportsInterface}."
      },
      "symbol()": {
        "details": "See {IERC721Metadata-symbol}."
      },
      "tokenByIndex(uint256)": {
        "details": "See {IERC721Enumerable-tokenByIndex}. Altered to use ERC721Cheap _owners array instead of _allTokens"
      },
      "tokenOfOwnerByIndex(address,uint256)": {
        "details": "See {IERC721Enumerable-tokenOfOwnerByIndex}. Altered to loop through tokens rather thsn grab from stored map"
      },
      "tokenURI(uint256)": {
        "details": "See {IERC721Metadata-tokenURI}."
      },
      "totalSupply()": {
        "details": "See {IERC721Enumerable-totalSupply}. Altered to use the ERC721Cheap _owners array instead of _allTokens"
      },
      "transferFrom(address,address,uint256)": {
        "details": "See {IERC721-transferFrom}."
      },
      "transferOwnership(address)": {
        "details": "Transfers ownership of the contract to a new account (`newOwner`). Can only be called by the current owner."
      }
    },
    "version": 1
  },
  "userdoc": {
    "kind": "user",
    "methods": {},
    "version": 1
  }
}