{
  "contractName": "Orange",
  "abi": [
    {
      "inputs": [
        {
          "components": [
            {
              "internalType": "address",
              "name": "membersAddress",
              "type": "address"
            },
            {
              "internalType": "uint256",
              "name": "owed",
              "type": "uint256"
            },
            {
              "internalType": "uint256",
              "name": "payed",
              "type": "uint256"
            }
          ],
          "internalType": "struct Orange.PaymentStruct[]",
          "name": "_payments",
          "type": "tuple[]"
        }
      ],
      "stateMutability": "nonpayable",
      "type": "constructor"
    },
    {
      "anonymous": false,
      "inputs": [
        {
          "indexed": true,
          "internalType": "address",
          "name": "owner",
          "type": "address"
        },
        {
          "indexed": true,
          "internalType": "address",
          "name": "approved",
          "type": "address"
        },
        {
          "indexed": true,
          "internalType": "uint256",
          "name": "tokenId",
          "type": "uint256"
        }
      ],
      "name": "Approval",
      "type": "event"
    },
    {
      "anonymous": false,
      "inputs": [
        {
          "indexed": true,
          "internalType": "address",
          "name": "owner",
          "type": "address"
        },
        {
          "indexed": true,
          "internalType": "address",
          "name": "operator",
          "type": "address"
        },
        {
          "indexed": false,
          "internalType": "bool",
          "name": "approved",
          "type": "bool"
        }
      ],
      "name": "ApprovalForAll",
      "type": "event"
    },
    {
      "anonymous": false,
      "inputs": [
        {
          "indexed": true,
          "internalType": "address",
          "name": "previousOwner",
          "type": "address"
        },
        {
          "indexed": true,
          "internalType": "address",
          "name": "newOwner",
          "type": "address"
        }
      ],
      "name": "OwnershipTransferred",
      "type": "event"
    },
    {
      "anonymous": false,
      "inputs": [
        {
          "indexed": true,
          "internalType": "address",
          "name": "from",
          "type": "address"
        },
        {
          "indexed": true,
          "internalType": "address",
          "name": "to",
          "type": "address"
        },
        {
          "indexed": true,
          "internalType": "uint256",
          "name": "tokenId",
          "type": "uint256"
        }
      ],
      "name": "Transfer",
      "type": "event"
    },
    {
      "inputs": [
        {
          "internalType": "address",
          "name": "to",
          "type": "address"
        },
        {
          "internalType": "uint256",
          "name": "tokenId",
          "type": "uint256"
        }
      ],
      "name": "approve",
      "outputs": [],
      "stateMutability": "nonpayable",
      "type": "function"
    },
    {
      "inputs": [
        {
          "internalType": "address",
          "name": "owner",
          "type": "address"
        }
      ],
      "name": "balanceOf",
      "outputs": [
        {
          "internalType": "uint256",
          "name": "",
          "type": "uint256"
        }
      ],
      "stateMutability": "view",
      "type": "function",
      "constant": true
    },
    {
      "inputs": [
        {
          "internalType": "uint256",
          "name": "tokenId",
          "type": "uint256"
        }
      ],
      "name": "getApproved",
      "outputs": [
        {
          "internalType": "address",
          "name": "",
          "type": "address"
        }
      ],
      "stateMutability": "view",
      "type": "function",
      "constant": true
    },
    {
      "inputs": [
        {
          "internalType": "address",
          "name": "owner",
          "type": "address"
        },
        {
          "internalType": "address",
          "name": "operator",
          "type": "address"
        }
      ],
      "name": "isApprovedForAll",
      "outputs": [
        {
          "internalType": "bool",
          "name": "",
          "type": "bool"
        }
      ],
      "stateMutability": "view",
      "type": "function",
      "constant": true
    },
    {
      "inputs": [],
      "name": "isPublicMint",
      "outputs": [
        {
          "internalType": "bool",
          "name": "",
          "type": "bool"
        }
      ],
      "stateMutability": "view",
      "type": "function",
      "constant": true
    },
    {
      "inputs": [],
      "name": "maxSupply",
      "outputs": [
        {
          "internalType": "uint256",
          "name": "",
          "type": "uint256"
        }
      ],
      "stateMutability": "view",
      "type": "function",
      "constant": true
    },
    {
      "inputs": [],
      "name": "maxWhitelistMint",
      "outputs": [
        {
          "internalType": "uint256",
          "name": "",
          "type": "uint256"
        }
      ],
      "stateMutability": "view",
      "type": "function",
      "constant": true
    },
    {
      "inputs": [],
      "name": "name",
      "outputs": [
        {
          "internalType": "string",
          "name": "",
          "type": "string"
        }
      ],
      "stateMutability": "view",
      "type": "function",
      "constant": true
    },
    {
      "inputs": [],
      "name": "owner",
      "outputs": [
        {
          "internalType": "address",
          "name": "",
          "type": "address"
        }
      ],
      "stateMutability": "view",
      "type": "function",
      "constant": true
    },
    {
      "inputs": [
        {
          "internalType": "uint256",
          "name": "tokenId",
          "type": "uint256"
        }
      ],
      "name": "ownerOf",
      "outputs": [
        {
          "internalType": "address",
          "name": "",
          "type": "address"
        }
      ],
      "stateMutability": "view",
      "type": "function",
      "constant": true
    },
    {
      "inputs": [],
      "name": "price",
      "outputs": [
        {
          "internalType": "uint256",
          "name": "",
          "type": "uint256"
        }
      ],
      "stateMutability": "view",
      "type": "function",
      "constant": true
    },
    {
      "inputs": [],
      "name": "renounceOwnership",
      "outputs": [],
      "stateMutability": "nonpayable",
      "type": "function"
    },
    {
      "inputs": [
        {
          "internalType": "uint256",
          "name": "",
          "type": "uint256"
        }
      ],
      "name": "revealList",
      "outputs": [
        {
          "internalType": "string",
          "name": "uri",
          "type": "string"
        },
        {
          "internalType": "uint256",
          "name": "tokenRange",
          "type": "uint256"
        }
      ],
      "stateMutability": "view",
      "type": "function",
      "constant": true
    },
    {
      "inputs": [
        {
          "internalType": "address",
          "name": "from",
          "type": "address"
        },
        {
          "internalType": "address",
          "name": "to",
          "type": "address"
        },
        {
          "internalType": "uint256",
          "name": "tokenId",
          "type": "uint256"
        }
      ],
      "name": "safeTransferFrom",
      "outputs": [],
      "stateMutability": "nonpayable",
      "type": "function"
    },
    {
      "inputs": [
        {
          "internalType": "address",
          "name": "from",
          "type": "address"
        },
        {
          "internalType": "address",
          "name": "to",
          "type": "address"
        },
        {
          "internalType": "uint256",
          "name": "tokenId",
          "type": "uint256"
        },
        {
          "internalType": "bytes",
          "name": "_data",
          "type": "bytes"
        }
      ],
      "name": "safeTransferFrom",
      "outputs": [],
      "stateMutability": "nonpayable",
      "type": "function"
    },
    {
      "inputs": [
        {
          "internalType": "address",
          "name": "operator",
          "type": "address"
        },
        {
          "internalType": "bool",
          "name": "approved",
          "type": "bool"
        }
      ],
      "name": "setApprovalForAll",
      "outputs": [],
      "stateMutability": "nonpayable",
      "type": "function"
    },
    {
      "inputs": [
        {
          "internalType": "bytes4",
          "name": "interfaceId",
          "type": "bytes4"
        }
      ],
      "name": "supportsInterface",
      "outputs": [
        {
          "internalType": "bool",
          "name": "",
          "type": "bool"
        }
      ],
      "stateMutability": "view",
      "type": "function",
      "constant": true
    },
    {
      "inputs": [],
      "name": "symbol",
      "outputs": [
        {
          "internalType": "string",
          "name": "",
          "type": "string"
        }
      ],
      "stateMutability": "view",
      "type": "function",
      "constant": true
    },
    {
      "inputs": [
        {
          "internalType": "uint256",
          "name": "index",
          "type": "uint256"
        }
      ],
      "name": "tokenByIndex",
      "outputs": [
        {
          "internalType": "uint256",
          "name": "",
          "type": "uint256"
        }
      ],
      "stateMutability": "view",
      "type": "function",
      "constant": true
    },
    {
      "inputs": [
        {
          "internalType": "address",
          "name": "owner",
          "type": "address"
        },
        {
          "internalType": "uint256",
          "name": "index",
          "type": "uint256"
        }
      ],
      "name": "tokenOfOwnerByIndex",
      "outputs": [
        {
          "internalType": "uint256",
          "name": "",
          "type": "uint256"
        }
      ],
      "stateMutability": "view",
      "type": "function",
      "constant": true
    },
    {
      "inputs": [],
      "name": "totalSupply",
      "outputs": [
        {
          "internalType": "uint256",
          "name": "",
          "type": "uint256"
        }
      ],
      "stateMutability": "view",
      "type": "function",
      "constant": true
    },
    {
      "inputs": [
        {
          "internalType": "address",
          "name": "from",
          "type": "address"
        },
        {
          "internalType": "address",
          "name": "to",
          "type": "address"
        },
        {
          "internalType": "uint256",
          "name": "tokenId",
          "type": "uint256"
        }
      ],
      "name": "transferFrom",
      "outputs": [],
      "stateMutability": "nonpayable",
      "type": "function"
    },
    {
      "inputs": [
        {
          "internalType": "address",
          "name": "newOwner",
          "type": "address"
        }
      ],
      "name": "transferOwnership",
      "outputs": [],
      "stateMutability": "nonpayable",
      "type": "function"
    },
    {
      "inputs": [
        {
          "internalType": "uint256",
          "name": "_numToMint",
          "type": "uint256"
        }
      ],
      "name": "publicMint",
      "outputs": [],
      "stateMutability": "payable",
      "type": "function",
      "payable": true
    },
    {
      "inputs": [
        {
          "internalType": "uint256",
          "name": "_numToMint",
          "type": "uint256"
        },
        {
          "internalType": "bytes32[]",
          "name": "_proof",
          "type": "bytes32[]"
        }
      ],
      "name": "whitelistMint",
      "outputs": [],
      "stateMutability": "payable",
      "type": "function",
      "payable": true
    },
    {
      "inputs": [
        {
          "internalType": "address",
          "name": "_addr",
          "type": "address"
        }
      ],
      "name": "getTokensOfAddress",
      "outputs": [
        {
          "internalType": "uint256[]",
          "name": "",
          "type": "uint256[]"
        }
      ],
      "stateMutability": "view",
      "type": "function",
      "constant": true
    },
    {
      "inputs": [
        {
          "internalType": "uint256",
          "name": "tokenId",
          "type": "uint256"
        }
      ],
      "name": "tokenURI",
      "outputs": [
        {
          "internalType": "string",
          "name": "",
          "type": "string"
        }
      ],
      "stateMutability": "view",
      "type": "function",
      "constant": true
    },
    {
      "inputs": [
        {
          "internalType": "uint256",
          "name": "_index",
          "type": "uint256"
        }
      ],
      "name": "getRevealStruct",
      "outputs": [
        {
          "components": [
            {
              "internalType": "string",
              "name": "uri",
              "type": "string"
            },
            {
              "internalType": "uint256",
              "name": "tokenRange",
              "type": "uint256"
            }
          ],
          "internalType": "struct Orange.RevealStruct",
          "name": "",
          "type": "tuple"
        }
      ],
      "stateMutability": "view",
      "type": "function",
      "constant": true
    },
    {
      "inputs": [
        {
          "internalType": "string",
          "name": "_uri",
          "type": "string"
        },
        {
          "internalType": "uint256",
          "name": "_tokenRange",
          "type": "uint256"
        },
        {
          "internalType": "uint256",
          "name": "_index",
          "type": "uint256"
        }
      ],
      "name": "revealTokens",
      "outputs": [],
      "stateMutability": "nonpayable",
      "type": "function"
    },
    {
      "inputs": [],
      "name": "togglePublicMint",
      "outputs": [],
      "stateMutability": "nonpayable",
      "type": "function"
    },
    {
      "inputs": [
        {
          "internalType": "bytes32",
          "name": "_root",
          "type": "bytes32"
        }
      ],
      "name": "setRoot",
      "outputs": [],
      "stateMutability": "nonpayable",
      "type": "function"
    },
    {
      "inputs": [
        {
          "internalType": "string",
          "name": "_uri",
          "type": "string"
        }
      ],
      "name": "setBaseUri",
      "outputs": [],
      "stateMutability": "nonpayable",
      "type": "function"
    },
    {
      "inputs": [],
      "name": "withdraw",
      "outputs": [],
      "stateMutability": "nonpayable",
      "type": "function"
    },
    {
      "inputs": [
        {
          "internalType": "uint256",
          "name": "_newMaxSupply",
          "type": "uint256"
        }
      ],
      "name": "lowerMaxSupply",
      "outputs": [],
      "stateMutability": "nonpayable",
      "type": "function"
    }
  ],
  "bytecode": "0x61271060085560e06040526036608081815290620039d860a03980516200002f91600a9160209091019062000562565b503480156200003d57600080fd5b5060405162003a0e38038062003a0e833981016040819052620000609162000608565b604080518082018252600e81526d4f72616e676520467269656e647360901b60208083019182528351808501909452600c84526b4f52414e4745204652454e5360a01b908401528151919291620000ba9160009162000562565b508051620000d090600190602084019062000562565b505050620000ed620000e7620001c660201b60201c565b620001ca565b60005b8151811015620001be57600c8282815181106200011157620001116200087b565b602090810291909101810151825460018082018555600094855293839020825160039092020180546001600160a01b0319166001600160a01b0390921691909117815591810151928201929092556040909101516002909101558151620001a9908390839081106200018757620001876200087b565b602002602001015160000151620001a36200021c60201b60201c565b62000222565b80620001b58162000851565b915050620000f0565b5050620008a7565b3390565b600580546001600160a01b038381166001600160a01b0319831681179093556040519116919082907f8be0079c531659141344cd1fd0a4f28419497f9722a3daafe3b4186f6b6457e090600090a35050565b60025490565b620002448282604051806020016040528060008152506200024860201b60201c565b5050565b620002548383620002c4565b620002636000848484620003f3565b620002bf5760405162461bcd60e51b81526020600482015260326024820152600080516020620039b883398151915260448201527131b2b4bb32b91034b6b83632b6b2b73a32b960711b60648201526084015b60405180910390fd5b505050565b6001600160a01b0382166200031c5760405162461bcd60e51b815260206004820181905260248201527f4552433732313a206d696e7420746f20746865207a65726f20616464726573736044820152606401620002b6565b62000328816002541190565b15620003775760405162461bcd60e51b815260206004820152601c60248201527f4552433732313a20746f6b656e20616c7265616479206d696e746564000000006044820152606401620002b6565b6002805460018101825560009182527f405787fa12a823e0f2b7631cc41b3ba8828b3321ca811111fa75cd3aa3bb5ace0180546001600160a01b0319166001600160a01b0385169081179091556040518392907fddf252ad1be2c89b69c2b068fc378daa952ba7f163c4a11628f55a4df523b3ef908290a45050565b600062000414846001600160a01b03166200055c60201b6200209c1760201c565b156200055057604051630a85bd0160e11b81526001600160a01b0385169063150b7a02906200044e9033908990889088906004016200073b565b602060405180830381600087803b1580156200046957600080fd5b505af19250505080156200049c575060408051601f3d908101601f19168201909252620004999181019062000708565b60015b62000535573d808015620004cd576040519150601f19603f3d011682016040523d82523d6000602084013e620004d2565b606091505b5080516200052d5760405162461bcd60e51b81526020600482015260326024820152600080516020620039b883398151915260448201527131b2b4bb32b91034b6b83632b6b2b73a32b960711b6064820152608401620002b6565b805181602001fd5b6001600160e01b031916630a85bd0160e11b14905062000554565b5060015b949350505050565b3b151590565b828054620005709062000814565b90600052602060002090601f016020900481019282620005945760008555620005df565b82601f10620005af57805160ff1916838001178555620005df565b82800160010185558215620005df579182015b82811115620005df578251825591602001919060010190620005c2565b50620005ed929150620005f1565b5090565b5b80821115620005ed5760008155600101620005f2565b600060208083850312156200061c57600080fd5b82516001600160401b03808211156200063457600080fd5b818501915085601f8301126200064957600080fd5b8151818111156200065e576200065e62000891565b6200066e848260051b01620007e1565b81815284810192508385016060808402860187018a10156200068f57600080fd5b600095505b83861015620006fa5780828b031215620006ad57600080fd5b620006b7620007b6565b82516001600160a01b0381168114620006cf57600080fd5b8152828801518882015260408084015190820152855260019590950194938601939081019062000694565b509098975050505050505050565b6000602082840312156200071b57600080fd5b81516001600160e01b0319811681146200073457600080fd5b9392505050565b600060018060a01b038087168352602081871681850152856040850152608060608501528451915081608085015260005b828110156200078a5785810182015185820160a0015281016200076c565b828111156200079d57600060a084870101525b5050601f01601f19169190910160a00195945050505050565b604051606081016001600160401b0381118282101715620007db57620007db62000891565b60405290565b604051601f8201601f191681016001600160401b03811182821017156200080c576200080c62000891565b604052919050565b600181811c908216806200082957607f821691505b602082108114156200084b57634e487b7160e01b600052602260045260246000fd5b50919050565b60006000198214156200087457634e487b7160e01b600052601160045260246000fd5b5060010190565b634e487b7160e01b600052603260045260246000fd5b634e487b7160e01b600052604160045260246000fd5b61310180620008b76000396000f3fe6080604052600436106102195760003560e01c80636352211e1161011d578063b7682469116100b0578063d2cab0561161007f578063dab5f34011610064578063dab5f340146105ee578063e985e9c51461060e578063f2fde38b1461065757600080fd5b8063d2cab056146105c5578063d5abeb01146105d857600080fd5b8063b768246914610538578063b88d4fde14610565578063c4e9374d14610585578063c87b56dd146105a557600080fd5b806395d89b41116100ec57806395d89b41146104c8578063a035b1fe146104dd578063a0bcfc7f146104f8578063a22cb4651461051857600080fd5b80636352211e1461045557806370a0823114610475578063715018a6146104955780638da5cb5b146104aa57600080fd5b80632f745c59116101b05780634047638d1161017f5780634494274e116101645780634494274e146103e75780634f6ccce71461040757806350373a8c1461042757600080fd5b80634047638d146103b257806342842e0e146103c757600080fd5b80632f745c591461034e5780633057931f1461036e578063309a3686146103885780633ccfd60b1461039d57600080fd5b806314de3919116101ec57806314de3919146102cf57806318160ddd146102fc57806323b872dd1461031b5780632db115441461033b57600080fd5b806301ffc9a71461021e57806306fdde0314610253578063081812fc14610275578063095ea7b3146102ad575b600080fd5b34801561022a57600080fd5b5061023e610239366004612ce7565b610677565b60405190151581526020015b60405180910390f35b34801561025f57600080fd5b506102686106bb565b60405161024a9190612efe565b34801561028157600080fd5b50610295610290366004612cce565b61074d565b6040516001600160a01b03909116815260200161024a565b3480156102b957600080fd5b506102cd6102c8366004612ca4565b6107dc565b005b3480156102db57600080fd5b506102ef6102ea366004612b62565b61090e565b60405161024a9190612eba565b34801561030857600080fd5b506002545b60405190815260200161024a565b34801561032757600080fd5b506102cd610336366004612bb0565b610a8b565b6102cd610349366004612cce565b610b12565b34801561035a57600080fd5b5061030d610369366004612ca4565b610cbb565b34801561037a57600080fd5b5060075461023e9060ff1681565b34801561039457600080fd5b5061030d600581565b3480156103a957600080fd5b506102cd610daf565b3480156103be57600080fd5b506102cd611090565b3480156103d357600080fd5b506102cd6103e2366004612bb0565b6110fe565b3480156103f357600080fd5b506102cd610402366004612d56565b611119565b34801561041357600080fd5b5061030d610422366004612cce565b61134d565b34801561043357600080fd5b50610447610442366004612cce565b6113d0565b60405161024a929190612f11565b34801561046157600080fd5b50610295610470366004612cce565b61148c565b34801561048157600080fd5b5061030d610490366004612b62565b61157f565b3480156104a157600080fd5b506102cd611668565b3480156104b657600080fd5b506005546001600160a01b0316610295565b3480156104d457600080fd5b506102686116cc565b3480156104e957600080fd5b5061030d66470de4df82000081565b34801561050457600080fd5b506102cd610513366004612d21565b6116db565b34801561052457600080fd5b506102cd610533366004612c68565b611748565b34801561054457600080fd5b50610558610553366004612cce565b61180d565b60405161024a9190612f33565b34801561057157600080fd5b506102cd610580366004612bec565b611942565b34801561059157600080fd5b506102cd6105a0366004612cce565b6119ca565b3480156105b157600080fd5b506102686105c0366004612cce565b611a46565b6102cd6105d3366004612da4565b611c8c565b3480156105e457600080fd5b5061030d60085481565b3480156105fa57600080fd5b506102cd610609366004612cce565b611f5e565b34801561061a57600080fd5b5061023e610629366004612b7d565b6001600160a01b03918216600090815260046020908152604080832093909416825291909152205460ff1690565b34801561066357600080fd5b506102cd610672366004612b62565b611fbd565b60006001600160e01b031982167f780e9d630000000000000000000000000000000000000000000000000000000014806106b557506106b5826120a2565b92915050565b6060600080546106ca90612ff3565b80601f01602080910402602001604051908101604052809291908181526020018280546106f690612ff3565b80156107435780601f1061071857610100808354040283529160200191610743565b820191906000526020600020905b81548152906001019060200180831161072657829003601f168201915b5050505050905090565b600061075a826002541190565b6107c05760405162461bcd60e51b815260206004820152602c60248201527f4552433732313a20617070726f76656420717565727920666f72206e6f6e657860448201526b34b9ba32b73a103a37b5b2b760a11b60648201526084015b60405180910390fd5b506000908152600360205260409020546001600160a01b031690565b60006107e78261148c565b9050806001600160a01b0316836001600160a01b031614156108715760405162461bcd60e51b815260206004820152602160248201527f4552433732313a20617070726f76616c20746f2063757272656e74206f776e6560448201527f720000000000000000000000000000000000000000000000000000000000000060648201526084016107b7565b336001600160a01b038216148061088d575061088d8133610629565b6108ff5760405162461bcd60e51b815260206004820152603860248201527f4552433732313a20617070726f76652063616c6c6572206973206e6f74206f7760448201527f6e6572206e6f7220617070726f76656420666f7220616c6c000000000000000060648201526084016107b7565b610909838361213d565b505050565b606080600061091c60025490565b90508067ffffffffffffffff8111156109375761093761309f565b604051908082528060200260200182016040528015610960578160200160208202803683370190505b5091506000805b828110156109e557856001600160a01b03166002828154811061098c5761098c613089565b6000918252602090912001546001600160a01b031614156109d357808483815181106109ba576109ba613089565b6020908102919091010152816109cf8161302e565b9250505b806109dd8161302e565b915050610967565b5060008167ffffffffffffffff811115610a0157610a0161309f565b604051908082528060200260200182016040528015610a2a578160200160208202803683370190505b50905060005b82811015610a8157848181518110610a4a57610a4a613089565b6020026020010151828281518110610a6457610a64613089565b602090810291909101015280610a798161302e565b915050610a30565b5095945050505050565b610a9533826121b8565b610b075760405162461bcd60e51b815260206004820152603160248201527f4552433732313a207472616e736665722063616c6c6572206973206e6f74206f60448201527f776e6572206e6f7220617070726f76656400000000000000000000000000000060648201526084016107b7565b6109098383836122a4565b60008111610b625760405162461bcd60e51b815260206004820152601c60248201527f456e74657220612076616c696420616d6f756e7420746f206d696e740000000060448201526064016107b7565b6000610b6d60025490565b905060003360075490915060ff161515600114610bcc5760405162461bcd60e51b815260206004820152601460248201527f4d696e74696e672069736e2774207075626c696300000000000000000000000060448201526064016107b7565b600854610bd98484612f65565b10610c265760405162461bcd60e51b815260206004820152601b60248201527f4d617820737570706c7920686173206265656e2072656163686564000000000060448201526064016107b7565b34610c388466470de4df820000612f91565b14610c855760405162461bcd60e51b815260206004820152601a60248201527f496e76616c69642076616c75652073656e7420746f206d696e7400000000000060448201526064016107b7565b60005b83811015610cb557610ca382610c9e8386612f65565b612434565b80610cad8161302e565b915050610c88565b50505050565b6000806000610cc960025490565b905060005b81811015610d4057856001600160a01b031660028281548110610cf357610cf3613089565b6000918252602090912001546001600160a01b03161415610d2e5784831415610d205792506106b5915050565b82610d2a8161302e565b9350505b80610d388161302e565b915050610cce565b5060405162461bcd60e51b815260206004820152602b60248201527f455243373231456e756d657261626c653a206f776e657220696e646578206f7560448201527f74206f6620626f756e647300000000000000000000000000000000000000000060648201526084016107b7565b6005546001600160a01b03163314610e095760405162461bcd60e51b815260206004820181905260248201527f4f776e61626c653a2063616c6c6572206973206e6f7420746865206f776e657260448201526064016107b7565b308031610e7e5760405162461bcd60e51b815260206004820152602260248201527f7468657265206973206e6f2062616c616e636520696e2074686520616464726560448201527f737300000000000000000000000000000000000000000000000000000000000060648201526084016107b7565b600c54610ecd5760405162461bcd60e51b815260206004820152601760248201527f686176656e742073657420746865207061796d656e747300000000000000000060448201526064016107b7565b60005b600c5481101561100f576001600160a01b03821631610eed575050565b6000600c8281548110610f0257610f02613089565b6000918252602080832060408051606081018252600390940290910180546001600160a01b03168452600181015492840183905260020154908301819052919350610f4d9190612fb0565b90508015610ffa57600081856001600160a01b03163110610f6f575080610f7c565b506001600160a01b038416315b8083604001818151610f8e9190612f65565b9052506040830151600c805486908110610faa57610faa613089565b6000918252602082206002600390920201019190915583516040516001600160a01b039091169183156108fc02918491818181858888f19350505050158015610ff7573d6000803e3d6000fd5b50505b505080806110079061302e565b915050610ed0565b506001600160a01b038116311561108c57600c805461103090600190612fb0565b8154811061104057611040613089565b600091825260208220600390910201546040516001600160a01b03918216929184163180156108fc0292909190818181858888f1935050505015801561108a573d6000803e3d6000fd5b505b505b565b6005546001600160a01b031633146110ea5760405162461bcd60e51b815260206004820181905260248201527f4f776e61626c653a2063616c6c6572206973206e6f7420746865206f776e657260448201526064016107b7565b6007805460ff19811660ff90911615179055565b61090983838360405180602001604052806000815250611942565b6005546001600160a01b031633146111735760405162461bcd60e51b815260206004820181905260248201527f4f776e61626c653a2063616c6c6572206973206e6f7420746865206f776e657260448201526064016107b7565b6008548211156111c55760405162461bcd60e51b815260206004820181905260248201527f43616e742072657665616c206d6f7265207468616e206d617820737570706c7960448201526064016107b7565b600b548114156112c457801561125257600b6111e2600183612fb0565b815481106111f2576111f2613089565b90600052602060002090600202016001015482116112525760405162461bcd60e51b815260206004820152601d60248201527f546f6b656e52616e6765206e6565647320746f2062652068696768657200000060448201526064016107b7565b604080518082019091528381526020808201849052600b80546001810182556000919091528251805160029092027f0175b7a638427703f0dbe7bb9bbf987a2551717b34e79f33b5b1008d1fa01db901926112b292849290910190612a19565b50602082015181600101555050505050565b600b5481106113155760405162461bcd60e51b815260206004820152601360248201527f5f696e646578206f7574206f662072616e67650000000000000000000000000060448201526064016107b7565b82600b828154811061132957611329613089565b90600052602060002090600202016000019080519060200190610cb5929190612a19565b600061135860025490565b82106113cc5760405162461bcd60e51b815260206004820152602c60248201527f455243373231456e756d657261626c653a20676c6f62616c20696e646578206f60448201527f7574206f6620626f756e6473000000000000000000000000000000000000000060648201526084016107b7565b5090565b600b81815481106113e057600080fd5b906000526020600020906002020160009150905080600001805461140390612ff3565b80601f016020809104026020016040519081016040528092919081815260200182805461142f90612ff3565b801561147c5780601f106114515761010080835404028352916020019161147c565b820191906000526020600020905b81548152906001019060200180831161145f57829003601f168201915b5050505050908060010154905082565b60025460009082106114e05760405162461bcd60e51b815260206004820152601460248201527f746f6b656e20646f6573206e6f7720657869737400000000000000000000000060448201526064016107b7565b6000600283815481106114f5576114f5613089565b6000918252602090912001546001600160a01b03169050806106b55760405162461bcd60e51b815260206004820152602960248201527f4552433732313a206f776e657220717565727920666f72206e6f6e657869737460448201527f656e7420746f6b656e000000000000000000000000000000000000000000000060648201526084016107b7565b60006001600160a01b0382166115fd5760405162461bcd60e51b815260206004820152602a60248201527f4552433732313a2062616c616e636520717565727920666f7220746865207a6560448201527f726f20616464726573730000000000000000000000000000000000000000000060648201526084016107b7565b600254600090815b8181101561165f576002818154811061162057611620613089565b6000918252602090912001546001600160a01b038681169116141561164d57826116498161302e565b9350505b806116578161302e565b915050611605565b50909392505050565b6005546001600160a01b031633146116c25760405162461bcd60e51b815260206004820181905260248201527f4f776e61626c653a2063616c6c6572206973206e6f7420746865206f776e657260448201526064016107b7565b61108e600061244e565b6060600180546106ca90612ff3565b6005546001600160a01b031633146117355760405162461bcd60e51b815260206004820181905260248201527f4f776e61626c653a2063616c6c6572206973206e6f7420746865206f776e657260448201526064016107b7565b805161108a90600a906020840190612a19565b6001600160a01b0382163314156117a15760405162461bcd60e51b815260206004820152601960248201527f4552433732313a20617070726f766520746f2063616c6c65720000000000000060448201526064016107b7565b3360008181526004602090815260408083206001600160a01b03871680855290835292819020805460ff191686151590811790915590519081529192917f17307eab39ab6107e8899845ad3d59bd9653f200f220920489ca2b5937696c31910160405180910390a35050565b604080518082019091526060815260006020820152600b5482106118735760405162461bcd60e51b815260206004820152601260248201527f696e646578206f7574206f662072616e6765000000000000000000000000000060448201526064016107b7565b600b828154811061188657611886613089565b90600052602060002090600202016040518060400160405290816000820180546118af90612ff3565b80601f01602080910402602001604051908101604052809291908181526020018280546118db90612ff3565b80156119285780601f106118fd57610100808354040283529160200191611928565b820191906000526020600020905b81548152906001019060200180831161190b57829003601f168201915b505050505081526020016001820154815250509050919050565b61194c33836121b8565b6119be5760405162461bcd60e51b815260206004820152603160248201527f4552433732313a207472616e736665722063616c6c6572206973206e6f74206f60448201527f776e6572206e6f7220617070726f76656400000000000000000000000000000060648201526084016107b7565b610cb5848484846124ad565b6005546001600160a01b03163314611a245760405162461bcd60e51b815260206004820181905260248201527f4f776e61626c653a2063616c6c6572206973206e6f7420746865206f776e657260448201526064016107b7565b600254811015611a3357600080fd5b6008548110611a4157600080fd5b600855565b6060611a53826002541190565b611ac55760405162461bcd60e51b815260206004820152602f60248201527f4552433732314d657461646174613a2055524920717565727920666f72206e6f60448201527f6e6578697374656e7420746f6b656e000000000000000000000000000000000060648201526084016107b7565b606060005b600b54811015611bc557600b8181548110611ae757611ae7613089565b9060005260206000209060020201600101548411611bb357600b8181548110611b1257611b12613089565b90600052602060002090600202016000018054611b2e90612ff3565b80601f0160208091040260200160405190810160405280929190818152602001828054611b5a90612ff3565b8015611ba75780601f10611b7c57610100808354040283529160200191611ba7565b820191906000526020600020905b815481529060010190602001808311611b8a57829003601f168201915b50505050509150611bc5565b80611bbd8161302e565b915050611aca565b508051611c5a57600a8054611bd990612ff3565b80601f0160208091040260200160405190810160405280929190818152602001828054611c0590612ff3565b8015611c525780601f10611c2757610100808354040283529160200191611c52565b820191906000526020600020905b815481529060010190602001808311611c3557829003601f168201915b505050505090505b80611c648461252b565b604051602001611c75929190612e4f565b604051602081830303815290604052915050919050565b60008311611cdc5760405162461bcd60e51b815260206004820152601c60248201527f456e74657220612076616c696420616d6f756e7420746f206d696e740000000060448201526064016107b7565b6000611ce760025490565b3360008181526009602052604090205491925090600590611d09908790612f65565b1115611d7c5760405162461bcd60e51b8152602060048201526024808201527f417474656d7074696e6720746f206d696e74206d6f7265207468616e20616c6c60448201527f6f7765640000000000000000000000000000000000000000000000000000000060648201526084016107b7565b600854611d898684612f65565b10611dd65760405162461bcd60e51b815260206004820152601b60248201527f4d617820737570706c7920686173206265656e2072656163686564000000000060448201526064016107b7565b34611de88666470de4df820000612f91565b14611e355760405162461bcd60e51b815260206004820152601a60248201527f496e76616c69642076616c75652073656e7420746f206d696e7400000000000060448201526064016107b7565b6040516bffffffffffffffffffffffff19606083901b166020820152600090603401604051602081830303815290604052805190602001209050611eb085858080602002602001604051908101604052809392919081815260200183836020028082843760009201919091525050600654915084905061265d565b611efc5760405162461bcd60e51b815260206004820152600d60248201527f496e76616c69642070726f6f660000000000000000000000000000000000000060448201526064016107b7565b6001600160a01b03821660009081526009602052604081208054889290611f24908490612f65565b90915550600090505b86811015611f5557611f4383610c9e8387612f65565b80611f4d8161302e565b915050611f2d565b50505050505050565b6005546001600160a01b03163314611fb85760405162461bcd60e51b815260206004820181905260248201527f4f776e61626c653a2063616c6c6572206973206e6f7420746865206f776e657260448201526064016107b7565b600655565b6005546001600160a01b031633146120175760405162461bcd60e51b815260206004820181905260248201527f4f776e61626c653a2063616c6c6572206973206e6f7420746865206f776e657260448201526064016107b7565b6001600160a01b0381166120935760405162461bcd60e51b815260206004820152602660248201527f4f776e61626c653a206e6577206f776e657220697320746865207a65726f206160448201527f646472657373000000000000000000000000000000000000000000000000000060648201526084016107b7565b61108c8161244e565b3b151590565b60006001600160e01b031982167f80ac58cd00000000000000000000000000000000000000000000000000000000148061210557506001600160e01b031982167f5b5e139f00000000000000000000000000000000000000000000000000000000145b806106b557507f01ffc9a7000000000000000000000000000000000000000000000000000000006001600160e01b03198316146106b5565b6000818152600360205260409020805473ffffffffffffffffffffffffffffffffffffffff19166001600160a01b038416908117909155819061217f8261148c565b6001600160a01b03167f8c5be1e5ebec7d5bd14f71427d1e84f3dd0314c0f7b2291e5b200ac8c7c3b92560405160405180910390a45050565b60006121c5826002541190565b6122265760405162461bcd60e51b815260206004820152602c60248201527f4552433732313a206f70657261746f7220717565727920666f72206e6f6e657860448201526b34b9ba32b73a103a37b5b2b760a11b60648201526084016107b7565b60006122318361148c565b9050806001600160a01b0316846001600160a01b0316148061226c5750836001600160a01b03166122618461074d565b6001600160a01b0316145b8061229c57506001600160a01b0380821660009081526004602090815260408083209388168352929052205460ff165b949350505050565b826001600160a01b03166122b78261148c565b6001600160a01b0316146123335760405162461bcd60e51b815260206004820152602960248201527f4552433732313a207472616e73666572206f6620746f6b656e2074686174206960448201527f73206e6f74206f776e000000000000000000000000000000000000000000000060648201526084016107b7565b6001600160a01b0382166123ae5760405162461bcd60e51b8152602060048201526024808201527f4552433732313a207472616e7366657220746f20746865207a65726f2061646460448201527f726573730000000000000000000000000000000000000000000000000000000060648201526084016107b7565b6123b960008261213d565b81600282815481106123cd576123cd613089565b60009182526020822001805473ffffffffffffffffffffffffffffffffffffffff19166001600160a01b03938416179055604051839285811692908716917fddf252ad1be2c89b69c2b068fc378daa952ba7f163c4a11628f55a4df523b3ef9190a4505050565b61108a82826040518060200160405280600081525061270c565b600580546001600160a01b0383811673ffffffffffffffffffffffffffffffffffffffff19831681179093556040519116919082907f8be0079c531659141344cd1fd0a4f28419497f9722a3daafe3b4186f6b6457e090600090a35050565b6124b88484846122a4565b6124c48484848461278a565b610cb55760405162461bcd60e51b815260206004820152603260248201527f4552433732313a207472616e7366657220746f206e6f6e20455243373231526560448201527131b2b4bb32b91034b6b83632b6b2b73a32b960711b60648201526084016107b7565b60608161256b57505060408051808201909152600181527f3000000000000000000000000000000000000000000000000000000000000000602082015290565b8160005b8115612595578061257f8161302e565b915061258e9050600a83612f7d565b915061256f565b60008167ffffffffffffffff8111156125b0576125b061309f565b6040519080825280601f01601f1916602001820160405280156125da576020820181803683370190505b5090505b841561229c576125ef600183612fb0565b91506125fc600a86613049565b612607906030612f65565b60f81b81838151811061261c5761261c613089565b60200101907effffffffffffffffffffffffffffffffffffffffffffffffffffffffffffff1916908160001a905350612656600a86612f7d565b94506125de565b600081815b855181101561270157600086828151811061267f5761267f613089565b602002602001015190508083116126c15760408051602081018590529081018290526060016040516020818303038152906040528051906020012092506126ee565b60408051602081018390529081018490526060016040516020818303038152906040528051906020012092505b50806126f98161302e565b915050612662565b509092149392505050565b61271683836128e2565b612723600084848461278a565b6109095760405162461bcd60e51b815260206004820152603260248201527f4552433732313a207472616e7366657220746f206e6f6e20455243373231526560448201527131b2b4bb32b91034b6b83632b6b2b73a32b960711b60648201526084016107b7565b60006001600160a01b0384163b156128d757604051630a85bd0160e11b81526001600160a01b0385169063150b7a02906127ce903390899088908890600401612e7e565b602060405180830381600087803b1580156127e857600080fd5b505af1925050508015612818575060408051601f3d908101601f1916820190925261281591810190612d04565b60015b6128bd573d808015612846576040519150601f19603f3d011682016040523d82523d6000602084013e61284b565b606091505b5080516128b55760405162461bcd60e51b815260206004820152603260248201527f4552433732313a207472616e7366657220746f206e6f6e20455243373231526560448201527131b2b4bb32b91034b6b83632b6b2b73a32b960711b60648201526084016107b7565b805181602001fd5b6001600160e01b031916630a85bd0160e11b14905061229c565b506001949350505050565b6001600160a01b0382166129385760405162461bcd60e51b815260206004820181905260248201527f4552433732313a206d696e7420746f20746865207a65726f206164647265737360448201526064016107b7565b612943816002541190565b156129905760405162461bcd60e51b815260206004820152601c60248201527f4552433732313a20746f6b656e20616c7265616479206d696e7465640000000060448201526064016107b7565b6002805460018101825560009182527f405787fa12a823e0f2b7631cc41b3ba8828b3321ca811111fa75cd3aa3bb5ace01805473ffffffffffffffffffffffffffffffffffffffff19166001600160a01b0385169081179091556040518392907fddf252ad1be2c89b69c2b068fc378daa952ba7f163c4a11628f55a4df523b3ef908290a45050565b828054612a2590612ff3565b90600052602060002090601f016020900481019282612a475760008555612a8d565b82601f10612a6057805160ff1916838001178555612a8d565b82800160010185558215612a8d579182015b82811115612a8d578251825591602001919060010190612a72565b506113cc9291505b808211156113cc5760008155600101612a95565b600067ffffffffffffffff80841115612ac457612ac461309f565b604051601f8501601f19908116603f01168101908282118183101715612aec57612aec61309f565b81604052809350858152868686011115612b0557600080fd5b858560208301376000602087830101525050509392505050565b80356001600160a01b0381168114612b3657600080fd5b919050565b600082601f830112612b4c57600080fd5b612b5b83833560208501612aa9565b9392505050565b600060208284031215612b7457600080fd5b612b5b82612b1f565b60008060408385031215612b9057600080fd5b612b9983612b1f565b9150612ba760208401612b1f565b90509250929050565b600080600060608486031215612bc557600080fd5b612bce84612b1f565b9250612bdc60208501612b1f565b9150604084013590509250925092565b60008060008060808587031215612c0257600080fd5b612c0b85612b1f565b9350612c1960208601612b1f565b925060408501359150606085013567ffffffffffffffff811115612c3c57600080fd5b8501601f81018713612c4d57600080fd5b612c5c87823560208401612aa9565b91505092959194509250565b60008060408385031215612c7b57600080fd5b612c8483612b1f565b915060208301358015158114612c9957600080fd5b809150509250929050565b60008060408385031215612cb757600080fd5b612cc083612b1f565b946020939093013593505050565b600060208284031215612ce057600080fd5b5035919050565b600060208284031215612cf957600080fd5b8135612b5b816130b5565b600060208284031215612d1657600080fd5b8151612b5b816130b5565b600060208284031215612d3357600080fd5b813567ffffffffffffffff811115612d4a57600080fd5b61229c84828501612b3b565b600080600060608486031215612d6b57600080fd5b833567ffffffffffffffff811115612d8257600080fd5b612d8e86828701612b3b565b9660208601359650604090950135949350505050565b600080600060408486031215612db957600080fd5b83359250602084013567ffffffffffffffff80821115612dd857600080fd5b818601915086601f830112612dec57600080fd5b813581811115612dfb57600080fd5b8760208260051b8501011115612e1057600080fd5b6020830194508093505050509250925092565b60008151808452612e3b816020860160208601612fc7565b601f01601f19169290920160200192915050565b60008351612e61818460208801612fc7565b835190830190612e75818360208801612fc7565b01949350505050565b60006001600160a01b03808716835280861660208401525083604083015260806060830152612eb06080830184612e23565b9695505050505050565b6020808252825182820181905260009190848201906040850190845b81811015612ef257835183529284019291840191600101612ed6565b50909695505050505050565b602081526000612b5b6020830184612e23565b604081526000612f246040830185612e23565b90508260208301529392505050565b602081526000825160406020840152612f4f6060840182612e23565b9050602084015160408401528091505092915050565b60008219821115612f7857612f7861305d565b500190565b600082612f8c57612f8c613073565b500490565b6000816000190483118215151615612fab57612fab61305d565b500290565b600082821015612fc257612fc261305d565b500390565b60005b83811015612fe2578181015183820152602001612fca565b83811115610cb55750506000910152565b600181811c9082168061300757607f821691505b6020821081141561302857634e487b7160e01b600052602260045260246000fd5b50919050565b60006000198214156130425761304261305d565b5060010190565b60008261305857613058613073565b500690565b634e487b7160e01b600052601160045260246000fd5b634e487b7160e01b600052601260045260246000fd5b634e487b7160e01b600052603260045260246000fd5b634e487b7160e01b600052604160045260246000fd5b6001600160e01b03198116811461108c57600080fdfea2646970667358221220524b167d32637b69df9a030e78f09cff325b0f87d8a2ce1439a51e87aef8ef9464736f6c634300080700334552433732313a207472616e7366657220746f206e6f6e204552433732315265697066733a2f2f516d61617447665578347059786e4276553154533457384861425775685437597977395a4c786566585158326f612f",
  "immutableReferences": {},
  "source": "// SPDX-License-Identifier: MIT\r\npragma solidity ^0.8.7;\r\n\r\nimport \"@openzeppelin/contracts/access/Ownable.sol\";\r\nimport \"@openzeppelin/contracts/utils/cryptography/MerkleProof.sol\";\r\nimport \"./ERC721EnumerableAlt.sol\";\r\nimport \"@openzeppelin/contracts/utils/Strings.sol\";\r\n\r\ncontract Orange is ERC721EnumerableAlt, Ownable {\r\n\r\n    using Strings for uint256;\r\n\r\n\tuint public constant maxWhitelistMint = 5;\r\n    //TODO: change this\r\n\tuint public constant price = 0.02 ether;\r\n\r\n    bytes32 root;\r\n\r\n    bool public isPublicMint;\r\n\r\n    uint public maxSupply = 10000;\r\n\r\n    mapping(address => uint) numWhitelistMinted;\r\n\r\n    string baseURI = \"ipfs://QmaatGfUx4pYxnBvU1TS4W8HaBWuhT7Yyw9ZLxefXQX2oa/\";\r\n\r\n    struct RevealStruct {\r\n        string uri;\r\n        uint tokenRange;\r\n    }\r\n\r\n    RevealStruct[] public revealList;\r\n\r\n    struct PaymentStruct {\r\n        address membersAddress;\r\n        uint owed;\r\n        uint payed;\r\n    }\r\n\r\n    PaymentStruct[] payments;\r\n\r\n    constructor(PaymentStruct[] memory _payments) ERC721Alt(\"Orange Friends\", \"ORANGE FRENS\") {\r\n\r\n        for(uint i = 0; i < _payments.length; i++) {\r\n            payments.push(_payments[i]);\r\n            _safeMint(_payments[i].membersAddress, totalSupply());\r\n        }\r\n\r\n    }\r\n\r\n    function publicMint(uint _numToMint) external payable {\r\n\r\n    \trequire(_numToMint > 0, \"Enter a valid amount to mint\");\r\n\r\n    \tuint tokenId = totalSupply();\r\n\r\n    \taddress sender = _msgSender();\r\n\r\n    \trequire(isPublicMint == true, \"Minting isn't public\");\r\n\r\n    \trequire(tokenId + _numToMint < maxSupply, \"Max supply has been reached\");\r\n\r\n    \trequire(price * _numToMint == msg.value, \"Invalid value sent to mint\");\r\n\r\n    \tfor(uint i = 0; i < _numToMint; i++) {\r\n\r\n    \t\t_safeMint(sender, tokenId + i);\r\n\r\n    \t}\r\n\r\n    }\r\n\r\n    function whitelistMint(uint _numToMint, bytes32[] calldata _proof) external payable {\r\n\r\n        require(_numToMint > 0, \"Enter a valid amount to mint\");\r\n\r\n        uint tokenId = totalSupply();\r\n\r\n        address sender = _msgSender();\r\n\r\n        require(numWhitelistMinted[sender] + _numToMint <= maxWhitelistMint, \"Attempting to mint more than allowed\");\r\n\r\n        require(tokenId + _numToMint < maxSupply, \"Max supply has been reached\");\r\n\r\n        require(price * _numToMint == msg.value, \"Invalid value sent to mint\");\r\n\r\n        bytes32 leaf = keccak256(abi.encodePacked(sender));\r\n\r\n        require(MerkleProof.verify(_proof, root, leaf), \"Invalid proof\");\r\n\r\n        numWhitelistMinted[sender] += _numToMint;\r\n\r\n        for(uint i = 0; i < _numToMint; i++) {\r\n\r\n            _safeMint(sender, tokenId + i);\r\n\r\n        }\r\n\r\n       \r\n    }\r\n\r\n    function getTokensOfAddress(address _addr) public view returns(uint[] memory) {\r\n\r\n        uint[] memory tempArray;\r\n\r\n        uint totalSupply = totalSupply();\r\n\r\n        tempArray = new uint[](totalSupply);\r\n        uint total;\r\n\r\n        for(uint i = 0; i < totalSupply; i++) {\r\n            if(_owners[i] == _addr) {\r\n                tempArray[total] = i;\r\n                total++;\r\n            }\r\n        }\r\n\r\n        uint[] memory finalArray = new uint[](total);\r\n        for(uint i = 0; i < total; i++) {\r\n            finalArray[i] = tempArray[i];\r\n        }\r\n        \r\n        return finalArray;\r\n\r\n    }\r\n\r\n    function tokenURI(uint256 tokenId) public view override returns (string memory) {\r\n\r\n        require(_exists(tokenId), \"ERC721Metadata: URI query for nonexistent token\");\r\n\r\n        string memory uri;\r\n\r\n        for(uint i = 0; i < revealList.length; i++) {\r\n\r\n            if(tokenId <= revealList[i].tokenRange) {\r\n\r\n                uri = revealList[i].uri;\r\n                break;\r\n\r\n            }\r\n\r\n        }\r\n\r\n        if(bytes(uri).length == 0) {\r\n            uri = baseURI;\r\n        }\r\n\r\n        return string(abi.encodePacked(uri, tokenId.toString()));\r\n\r\n    }\r\n\r\n    function getRevealStruct(uint _index) public view returns(RevealStruct memory) {\r\n        require(_index < revealList.length, \"index out of range\");\r\n        return revealList[_index];\r\n    }\r\n    \r\n    function revealTokens(string memory _uri, uint _tokenRange, uint _index) external onlyOwner {\r\n\r\n        require(_tokenRange <= maxSupply, \"Cant reveal more than max supply\");\r\n\r\n        if(_index == revealList.length) {\r\n\r\n            if(_index > 0) {\r\n                require(_tokenRange > revealList[_index - 1].tokenRange, \"TokenRange needs to be higher\");\r\n            }\r\n\r\n            revealList.push(RevealStruct(\r\n                _uri,\r\n                _tokenRange\r\n            ));\r\n\r\n        } else {\r\n\r\n            require(_index < revealList.length, \"_index out of range\");\r\n            revealList[_index].uri = _uri;\r\n        }\r\n        \r\n\r\n    }\r\n\r\n    function togglePublicMint() external onlyOwner {\r\n\r\n    \tisPublicMint = !isPublicMint;\r\n\r\n    }\r\n\r\n    function setRoot(bytes32 _root) external onlyOwner {\r\n\r\n    \troot = _root;\r\n\r\n    }\r\n\r\n    function setBaseUri(string memory _uri) external onlyOwner {\r\n        baseURI = _uri;\r\n    }\r\n\r\n    function withdraw() external onlyOwner {\r\n\r\n        address thisAddress = address(this);\r\n\r\n        require(thisAddress.balance > 0, \"there is no balance in the address\");\r\n        require(payments.length > 0, \"havent set the payments\");\r\n\r\n        for(uint i = 0; i < payments.length; i++) {\r\n\r\n            if(thisAddress.balance == 0) {\r\n                return;\r\n            }\r\n\r\n            PaymentStruct memory payment = payments[i];\r\n\r\n            uint paymentLeft = payment.owed - payment.payed;\r\n\r\n            if(paymentLeft > 0) {\r\n\r\n                uint amountToPay;\r\n\r\n                if(thisAddress.balance >= paymentLeft) {\r\n\r\n                    amountToPay = paymentLeft;\r\n\r\n                } else {\r\n                    amountToPay = thisAddress.balance;\r\n                }\r\n\r\n                payment.payed += amountToPay;\r\n                payments[i].payed = payment.payed;\r\n\r\n                payable(payment.membersAddress).transfer(amountToPay);\r\n\r\n            } \r\n\r\n        }\r\n\r\n        if(thisAddress.balance > 0) {\r\n\r\n            payable(payments[payments.length - 1].membersAddress).transfer(thisAddress.balance);\r\n        }\r\n        \r\n    }\r\n \r\n    function lowerMaxSupply(uint _newMaxSupply) external onlyOwner {\r\n        require(_newMaxSupply >= totalSupply());\r\n        require(_newMaxSupply < maxSupply);\r\n\r\n        maxSupply = _newMaxSupply;\r\n    }\r\n\r\n}",
  "sourcePath": "C:\\Users\\Owner\\Documents\\Python\\NFT code\\DappUniversity\\decentragram\\src\\contracts\\Orange.sol",
  "compiler": {
    "name": "solc",
    "version": "0.8.7+commit.e28d00a7.Emscripten.clang"
  },
  "schemaVersion": "3.4.4",
  "updatedAt": "2022-02-05T17:37:09.366Z",
  "networkType": "ethereum",
  "devdoc": {
    "kind": "dev",
    "methods": {
      "approve(address,uint256)": {
        "details": "See {IERC721-approve}."
      },
      "balanceOf(address)": {
        "details": "See {IERC721-balanceOf}. altered to remove the need to set a balances map"
      },
      "getApproved(uint256)": {
        "details": "See {IERC721-getApproved}."
      },
      "isApprovedForAll(address,address)": {
        "details": "See {IERC721-isApprovedForAll}."
      },
      "name()": {
        "details": "See {IERC721Metadata-name}."
      },
      "owner()": {
        "details": "Returns the address of the current owner."
      },
      "ownerOf(uint256)": {
        "details": "See {IERC721-ownerOf}."
      },
      "renounceOwnership()": {
        "details": "Leaves the contract without owner. It will not be possible to call `onlyOwner` functions anymore. Can only be called by the current owner. NOTE: Renouncing ownership will leave the contract without an owner, thereby removing any functionality that is only available to the owner."
      },
      "safeTransferFrom(address,address,uint256)": {
        "details": "See {IERC721-safeTransferFrom}."
      },
      "safeTransferFrom(address,address,uint256,bytes)": {
        "details": "See {IERC721-safeTransferFrom}."
      },
      "setApprovalForAll(address,bool)": {
        "details": "See {IERC721-setApprovalForAll}."
      },
      "supportsInterface(bytes4)": {
        "details": "See {IERC165-supportsInterface}."
      },
      "symbol()": {
        "details": "See {IERC721Metadata-symbol}."
      },
      "tokenByIndex(uint256)": {
        "details": "See {IERC721Enumerable-tokenByIndex}. Altered to use ERC721Alt _owners array instead of _allTokens"
      },
      "tokenOfOwnerByIndex(address,uint256)": {
        "details": "See {IERC721Enumerable-tokenOfOwnerByIndex}. Altered to loop through tokens rather thsn grab from stored map"
      },
      "tokenURI(uint256)": {
        "details": "See {IERC721Metadata-tokenURI}."
      },
      "totalSupply()": {
        "details": "See {IERC721Enumerable-totalSupply}. Altered to use the ERC721Alt _owners array instead of _allTokens"
      },
      "transferFrom(address,address,uint256)": {
        "details": "See {IERC721-transferFrom}."
      },
      "transferOwnership(address)": {
        "details": "Transfers ownership of the contract to a new account (`newOwner`). Can only be called by the current owner."
      }
    },
    "version": 1
  },
  "userdoc": {
    "kind": "user",
    "methods": {},
    "version": 1
  }
}